:400000000010002011000000C9030000C903000010B500F0E1F9C04670B5114C23688025ED022B432360302000F08AFA0D4A0E4B1A6010220D4B1A60802212060C4B1A6043
:4000400025600C4A0C4B1A600C49092000F01EFA092000F005FA0022094B1A6070BDC04600010B400600008004010B400C02024008010B40A0010080000002405107000092
:400080000C020B4010B572B600240FE01E486200131959000B00411889881A5AC31858880004104300F08AF90134E4B2012CEDD999231B04154A1360EE210902144A1160D8
:4000C000144A1360144A1360144A1360144A117806230B43DBB21370A022124B1A60124A124B1A602022124B1A602032114B1A60C0225203104B1A60D82212010F4B1A6025
:40010000FFF78AFF10BDC0463C0C0000000001400C00014000500F4010500F4030500F4000700F400000044006104300080004401800044000010440080104400803044095
:4001400010B5064C2378002B07D1054B002B02D0044800E000BF0123237010BD5801002000000000380C0000084B10B5002B03D00749084800E000BF07480368002B00D146
:4001800010BD064B002BFBD09847F9E7000000005C010020380C0000C00000200000000030B54208050983086B400400544063401900C4086240400968404240D243D3B289
:4001C0005B000B43D8B230BD70B582B004006B46DE1D002333706A46951D9371FFF7E0FF307033789B011C43E4B22C702878C0B202B070BD83B2002204E0885C1B189BB2CF
:400200000132D2B2032AF8D9180AC318D843C0B27047C04670B50500012000F047FC3222134B1A703220FFF7CFFF124C207029000020FFF7DFFF60700D2000F00BFC55207E
:4002400000F032FB207800F02FFB002403E0285D00F02AFB0134032CF9DD064B587800F023FB072000F04AF9002000F01FFC70BDC40000207401002010B53422104B1A707A
:400280003420FFF7A1FF0F4C2070012000F00EFC0D2000F0DFFB552000F006FB207800F003FB002405E000F0BFFB064B1B1918710134082CF7DD002000F0F8FB10BDC04697
:4002C000C40000207401002010B528480430FFF7A1FF20E025480430FFF79CFF00240CE0FFF7CAFF192000F009F920480430FFF791FF192000F002F90134092CF0DD1C4A77
:40030000D3799373137AD373DB09184A1372FA20400000F0F3F8154B1B7A002BDAD1002410E0FFF7A9FF192000F0E8F80F480C30FFF770FF192000F0E1F8FA20400000F0CE
:40034000DDF80134092CECDD00240CE0FFF794FF192000F0D3F806481030FFF75BFF192000F0CCF80134092CF0DD10BDC40000207401002030B583B062B600F057FAFFF739
:40038000A3FF32236A461370002353709370D37001ACC02222706370A370E3706846FFF739FF054D280000F0A9F82000FFF732FF280000F0A3F8E4E7C409000010B50A0045
:4003C000002100F031FC10BD10B500F001FC03680C2B00D1FEE7FEE770B50F4E0F4D13E029686B68AC68002202E001C901C30432A242FAD1E868002202E0002102C30432D3
:400400008242FAD11035013E002EE9D100F0E6FBFFF7B0FFFEE7C046010000009C0C000010B500230AE0032B03D89A000949505800E009489900094A885001332F2BF2D9FA
:40044000FFF720FE8022D205116801230B43136010BDC04600000000C9030000000000201F2318401E3B8340014A13607047C04600E100E01F2318401E3B8340014A13606C
:400480007047C04680E100E001BE704770B504000D001F2802D90020FFF7F6FF1034A40080239B059C4664442068256070BDC04670B504000E00032902D90020FFF7E4FF39
:4004C0001F2C02D90020FFF7DFFF03252540ED00063500F003FBA408A400074B9C46644421680323AB4099430B003100A9401943216000F0F7FA70BD00E400E010B5040000
:4005000006E0084B586800F0DFFA074B9C46644480231B029C42F4D8024B9868604300F0D3FA10BDD80000200080FFFF10B5034B1B7B584300F0C8FA10BDC046D800002002
:40054000F0B557464E46C0B483B0040000F0C6FA0190E71E2D2F74D83F4B1B78DBB29C4208D83E4B1B78DBB29A463D4B1B78DBB2994631E03B4B1B78DBB29C4208D83A4B9A
:400580001B78DBB29A46394B1B78DBB2994623E0374B1B78DBB29C4208D8364B1B78DBB29A46354B1B78DBB2994615E0334B1B78DBB29C4208D8324B1B78DBB29A46314B0B
:4005C0001B78DBB2994607E02F4B1B78DBB29A462E4B1B78DBB299462D4BDE5D2F2E09D92A2C07D919222B4B1A60052000F06CFA192503E0274B1D683F231D40B54206D9A8
:40060000234BDA5D234B1A60052000F05DFA1F4B9C4664442378DBB21F4A13601F4B52461A601F4B4A461A600520FFF77FFFB5420AD2174BDA5D174B1A60052000F044FAA5
:4006400002E00020FFF720FF019800F04BFA03B00CBC91469A46F0BDC0F1FF0FC1F1FF0FC2F1FF0FC3F1FF0FC4F1FF0FC5F1FF0FC6F1FF0FC7F1FF0FC8F1FF0FC9F1FF0F13
:40068000CAF1FF0FCBF1FF0FCCF1FF0FCDF1FF0F480C00002CFF0B4028FF0B401CFF0B4020FF0B40034B1868C0231B02184000D00120704700010B4010B500F00FFA044ADE
:4006C0001368C02109020B43136000F00BFA10BD00010B4010B500F001FA08490A68084B1A408024E40122430A600A6813408022120213430B6000F0F5F910BD00010B4019
:40070000FF3FFFFF70B5050000F0E8F90400FFF7C9FF002803D0FFF7DDFF012100E0002108482840084A1568084B2B40184310601368012901D1FFF7BFFF200000F0D2F9BA
:4007400070BDC0460404040010020B40FBFBFBFF10B5244B1B685B0715D5234B1B685B070ED5224BD969042001401F4C22688A432260DA698243DA611B69002B00D09847BB
:400780000420FFF7BFFF174B1B685B0518D5164B1B685B0510D5154BD9698022D2001140114802688A430260D969114A0A40DA615B69002B00D098478020C000FFF7A2FFF6
:4007C000084B1B685B030CD5074B1B685B0304D5064B9B69002B00D098478020C002FFF791FF10BD10020B40EC0000208C010020FFFBFFFF10B50B20FFF732FE10BDC046FD
:4008000010B500F0FBF810BD10B500F085F810BD10B5054A1368802109060B431360FFF7E9FFFFF7EDFF10BD0000074010B5064B1B78002B04D1FFF7E7FF0122024B1A70F1
:40084000FFF7E6FF10BDC046AC010020094B1A68094B1B689A420BD0074B1B6801330B2B00D10023054AD05CC0B2034A136000E000207047C8010020CC010020B801002053
:40088000074B1B68074A1268934203D3054A1068181A04E0034A10681B1A0B3318007047C8010020CC010020144B1A68144B1B689A4208D1134B1B680F221340082B02D051
:4008C000114B186019E00D4B1A6801320A2A00D100220B4B1B689A42FBD002230B490B60C0B20B49885405490A600A4A1268134203D1084A11680B4313607047C40100201A
:40090000DC0100200802074040020740800F0740D0010020880F074010B51F4A1F4B1A6000241F4B1C601F4A1F4B1A601F4B204A136007211F4A11601F4A146006391F4A04
:4009400011601F4A13601F4B1C600B20FFF792FD03210B20FFF7ACFD1B490B20FFF796FD1A4B1C601A4B1C601A4B1C601A4B1C6004221A4B1A601A4B1C601A68194B1A80A4
:40098000194B1C60194B1C60194B1C70194B1C60194B1C6010BDC0460B000002000007404000074001000A004800074007000080000307400403074010030740440007407B
:4009C0000002074004020740ED0A0000880E0740C80E0740480F0740080F0740C80F0740880F0740B4010020C8010020CC010020E0010020C4010020DC010020064A116821
:400A0000064B0B40902109040B431360044B1A88044B1A607047C04600000140FFFF0FFFB4010020880F074010B5FFF729FF002802D0FFF70BFF00E00020054B1A68D8237A
:400A40009B001A4203D01A00014B1A60002010BDC00F074070B503000F4A156800241460802189000D4A11600D4A166811680F208143013B1840084310600A4B1C60074B8E
:400A80001B689B05FBD5084A044B1A60044B1E60014B1D6070BDC046880F0740800F07400002074040020740F3070000044A1368DBB201218B430840184310607047C046C9
:400AC00000000440000000000230800804D0C0460138FDD1C046C046C0467047EFF3108072B6704780F310887047C04610B5274B1B68002B00D09847254B1B685B071DD55A
:400B0000244B1B6801330B2B00D10023224A1268934205D1214B1B682022214B1A7006E01E4A1268D2B21F49CA541A4A13601E4B1B681B07E4D104221C4B1A601C4B1B6850
:400B40009B0721D51B4B1A681B4B1B689A4213D0194B1B6801330A2B00D10023174AD25CD2B217490A60144A1360164B1B680F221340082BE6D104E0134A136802218B435C
:400B800013600222114B1A6010BDC046B0010020CC0F0740C8010020CC01002040030740E0010020B801002008030740C00F07408C0F0740C4010020DC010020D0010020AB
:400BC0004002074008020740880F0740800F0740014B18687047C046500100200E4B70B500251E000D4CE41AA410A54204D0AB00F35898470135F8E700F03EF8084B00255E
:400C00001E00084CE41AA410A54204D0AB00F35898470135F8E770BD840C0000840C0000840C00008C0C000003008218934202D019700133FAE770470000000000300F405E
:400C4000000400400F400004030405060708090A0B0C0E0F101112131415161718191B1C1D1E1F2021222325262728292A2B2E2F3031323334354300F8B5C046F8BC08BC7F
:400C80009E4670476901000021040000F8B5C046F8BC08BC9E46704741010000B00C0000C00000209800000090000000000000000000000010000000F0010000010000003C
:400CC0000001000001000000010000000000C05D80BB000030000000006CDC0204040400000000000000000000000000000000000000000000000000000000000000000013
:400D0000760C000000000000000000000000000000000000000000000000000000000000000000000000000000000000000000000000000000000000000000000000000031
:400D4000F000002000000000000000000000000000000000000000000000000000000000000000000000000000000000000000000000000000000000000000000000000063
:400D80000000000000000000000000000000000000000000000000000000000000000000000000000000000000000000000000000000000000000000000000000000000033
:400DC00000000000000000000000000000000000000000000000000000000000000000000000000000000000000000000000000000000000000000000000000000000000F3
:400E000000000000000000000000000000000000000000000000000000000000000000000000000000000000000000000000000000000000000000000000000000000000B2
:400E40000000000000000000000000000000000000000000000000000000000000000000000000000000000000000000000000000000000000000000000000000000000072
:0200000490303A
:0200000035AC1D
:0200000490402A
:200000000000000000000000000000000000000000000000000000000000000000000000E0
:0200000490501A
:0C000000000204C81193110104CC473F1A
:0200000490600A
:0100000001FE
:00000001FF