:400000000010002011000000B5030000B503000010B500F0D7F9C04670B5114C23688025ED022B432360302000F080FA0D4A0E4B1A6010220D4B1A60802212060C4B1A607F
:4000400025600C4A0C4B1A600C49092000F014FA092000F0FBF90022094B1A6070BDC04600010B400600008004010B400C02024008010B40CF000080000002403D0700008D
:400080000C020B4010B572B600240FE020486200131959000B00411889881A5AC31858880004104300F080F90134E4B2012CEDD999231B04174A1360EE210902164A1160DC
:4000C000164A1360164A1360164A1360164A117806230B43DBB213702222144B1A60144A144B1A600C22144B1A601432134B1A601F3A134B1A60134A134B1A600322134BB5
:400100001A60D8221201124B1A60FFF785FF10BD2C0D0000000001400C00014000500F4010500F4030500F4000700F400000044010100300080004400C0004401800044018
:400140000001044002001800080104400C0104400803044010B5064C2378002B07D1054B002B02D0044800E000BF0123237010BD5001002000000000280D0000084B10B504
:40018000002B03D00749084800E000BF07480368002B00D110BD064B002BFBD09847F9E70000000054010020280D0000C00000200000000030B54208050983086B40040078
:4001C000544063401900C4086240400968404240D243D3B25B000B43D8B230BD70B582B004006B46DE1D002333706A46951D9371FFF7E0FF307033789B011C43E4B22C7094
:400200002878C0B202B070BD82B2002304E0C85C121892B20133DBB2072BF8D9100A8218D043C0B27047C04670B50D2000F008FC552000F02FFB284D287800F02BFB274CD3
:40024000207800F027FB607800F024FBA07800F021FBE07800F01EFB207900F01BFB607900F018FBA07900F015FBE07900F012FB687800F00FFB00F0CDFBC0B2184C207086
:4002800000F0C8FBC0B2607000F0C4FBC0B2A07000F0C0FBC0B2E07000F0BCFBC0B2207100F0B8FBC0B2607100F0B4FBC0B2A07100F0B0FBC0B2E071012000F071FCFA24FF
:4002C0006400200000F010F9002000F069FC200000F00AF970BDC0466C010020C40000209C01002010B500F0D7FB012803D10122034B1A7002E00022014B1A7010BDC0466C
:40030000C400002070B5FFF7EDFF084D287AFFF765FFC0B2064C20702900FFF775FF6070FFF782FF00F0C0FB70BDC046C40000206C01002010B500F0BFFB012803D1112265
:40034000034B1A7002E01022014B1A7010BDC046C400002070B5FFF7EDFF084D287AFFF73DFFC0B2064C20702900FFF74DFF6070FFF75AFF00F0A8FB70BDC046C40000204C
:400380006C01002010B562B600F046FA044800F0C9FB044800F0F6FB002000F001FCFEE7050300005503000010B50A00002100F0B3FC10BD10B500F083FC03680C2B00D121
:4003C000FEE7FEE770B50F4E0F4D13E029686B68AC68002202E001C901C30432A242FAD1E868002202E0002102C304328242FAD11035013E002EE9D100F068FCFFF7C2FFFD
:40040000FEE7C046010000008C0D000010B500230AE0032B03D89A000949505800E009489900094A885001332F2BF2D9FFF72AFE8022D205116801230B43136010BDC046B2
:4004400000000000B5030000000000201F2318401E3B8340014A13607047C04600E100E01F2318401E3B8340014A13607047C04680E100E001BE704770B504000D001F284D
:4004800002D90020FFF7F6FF1034A40080239B059C4664442068256070BDC04670B504000E00032902D90020FFF7E4FF1F2C02D90020FFF7DFFF03252540ED00063500F06B
:4004C00085FBA408A400074B9C46644421680323AB4099430B003100A9401943216000F079FB70BD00E400E010B5040006E0084B586800F061FB074B9C46644480231B02D9
:400500009C42F4D8024B9868604300F055FB10BDD00000200080FFFF10B5034B1B7B584300F04AFB10BDC046D0000020F0B557464E46C0B483B0040000F048FB0190E71E20
:400540002D2F74D83F4B1B78DBB29C4208D83E4B1B78DBB29A463D4B1B78DBB2994631E03B4B1B78DBB29C4208D83A4B1B78DBB29A46394B1B78DBB2994623E0374B1B78C6
:40058000DBB29C4208D8364B1B78DBB29A46354B1B78DBB2994615E0334B1B78DBB29C4208D8324B1B78DBB29A46314B1B78DBB2994607E02F4B1B78DBB29A462E4B1B783A
:4005C000DBB299462D4BDE5D2F2E09D92A2C07D919222B4B1A60052000F0EEFA192503E0274B1D683F231D40B54206D9234BDA5D234B1A60052000F0DFFA1F4B9C46644423
:400600002378DBB21F4A13601F4B52461A601F4B4A461A600520FFF77FFFB5420AD2174BDA5D174B1A60052000F0C6FA02E00020FFF720FF019800F0CDFA03B00CBC914657
:400640009A46F0BDC0F1FF0FC1F1FF0FC2F1FF0FC3F1FF0FC4F1FF0FC5F1FF0FC6F1FF0FC7F1FF0FC8F1FF0FC9F1FF0FCAF1FF0FCBF1FF0FCCF1FF0FCDF1FF0F380D0000DB
:400680002CFF0B4028FF0B401CFF0B4020FF0B40034B1868C0231B02184000D00120704700010B4010B500F091FA044A1368C02109020B43136000F08DFA10BD00010B4022
:4006C00010B500F083FA08490A68084B1A408024E40122430A600A6813408022120213430B6000F077FA10BD00010B40FF3FFFFF70B5050000F06AFA0400FFF7C9FF0028A6
:4007000003D0FFF7DDFF012100E0002108482840084A1568084B2B40184310601368012901D1FFF7BFFF200000F054FA70BDC0460404040010020B40FBFBFBFF10B5244B98
:400740001B685B0715D5234B1B685B070ED5224BD969042001401F4C22688A432260DA698243DA611B69002B00D098470420FFF7BFFF174B1B685B0518D5164B1B685B052D
:4007800010D5154BD9698022D2001140114802688A430260D969114A0A40DA615B69002B00D098478020C000FFF7A2FF084B1B685B030CD5074B1B685B0304D5064B9B69CE
:4007C000002B00D098478020C002FFF791FF10BD10020B40E400002070010020FFFBFFFF10B50B20FFF732FE10BDC04610B500F0FBF810BD10B500F085F810BD10B5054A0F
:400800001368802109060B431360FFF7E9FFFFF7EDFF10BD0000074010B5064B1B78002B04D1FFF7E7FF0122024B1A70FFF7E6FF10BDC04690010020094B1A68094B1B686D
:400840009A420BD0074B1B6801330B2B00D10023054AD05CC0B2034A136000E000207047B4010020B8010020A4010020074B1B68074A1268934203D3054A1068181A04E08F
:40088000034A10681B1A0B3318007047B4010020B8010020144B1A68144B1B689A4208D1134B1B680F221340082B02D0114B186019E00D4B1A6801320A2A00D100220B4B4A
:4008C0001B689A42FBD002230B490B60C0B20B49885405490A600A4A1268134203D1084A11680B4313607047B0010020C80100200802074040020740800F0740BC0100200F
:40090000880F074010B51F4A1F4B1A6000241F4B1C601F4A1F4B1A601F4B204A136007211F4A11601F4A146006391F4A11601F4A13601F4B1C600B20FFF792FD03210B2070
:40094000FFF7ACFD1B490B20FFF796FD1A4B1C601A4B1C601A4B1C601A4B1C6004221A4B1A601A4B1C601A68194B1A80194B1C60194B1C60194B1C70194B1C60194B1C6066
:4009800010BDC0460B000002000007404000074001000A004800074007000080000307400403074010030740440007400002074004020740DD0B0000880E0740C80E074073
:4009C000480F0740080F0740C80F0740880F074098010020B4010020B8010020CC010020B0010020C8010020064A1168064B0B40902109040B431360044B1A88044B1A6053
:400A00007047C04600000140FFFF0FFF98010020880F074010B5FFF729FF002802D0FFF70BFF00E00020054B1A68D8239B001A4203D01A00014B1A60002010BDC00F0740BE
:400A400070B503000F4A156800241460802189000D4A11600D4A166811680F208143013B1840084310600A4B1C60074B1B689B05FBD5084A044B1A60044B1E60014B1D6097
:400A800070BDC046880F0740800F07400002074040020740F3070000024B1B68012018407047C04604010440024A1068012318401060704710010440024B1868400801233F
:400AC0001840704704000440034A10680223184010604008C0B2704710000440014B58647047C0460000002010B5040000F06EF8044A1168044B0B40A4031C43146000F059
:400B000069F810BD00E400E0FF3FFFFF0222014B1A60704700E100E00222014B1A60704780E100E010B50400FFF7F6FF2000FFF7D5FF0320FFF7D8FFFFF7E8FF10BDC04605
:400B4000014B18647047C0460000002010B5040000F03CF8044A1368C0218B43A4011C43146000F037F810BD00E400E00122014B1A60704700E100E00122014B1A60704742
:400B800080E100E010B50400FFF7F6FF2000FFF7D7FF0320FFF7DAFFFFF7E8FF10BDC04604490A68D2B240239A4380011840104308607047000104400230800804D0C0460B
:400BC0000138FDD1C046C046C0467047EFF3108072B6704780F310887047C04610B5274B1B68002B00D09847254B1B685B071DD5244B1B6801330B2B00D10023224A1268FB
:400C0000934205D1214B1B682022214B1A7006E01E4A1268D2B21F49CA541A4A13601E4B1B681B07E4D104221C4B1A601C4B1B689B0721D51B4B1A681B4B1B689A4213D05D
:400C4000194B1B6801330A2B00D10023174AD25CD2B217490A60144A1360164B1B680F221340082BE6D104E0134A136802218B4313600222114B1A6010BDC046940100208E
:400C8000CC0F0740B4010020B801002040030740CC010020A401002008030740C00F07408C0F0740B0010020C8010020BC0100204002074008020740880F0740800F0740B9
:400CC000014B18687047C046480100200E4B70B500251E000D4CE41AA410A54204D0AB00F35898470135F8E700F03EF8084B00251E00084CE41AA410A54204D0AB00F3581E
:400D000098470135F8E770BD740D0000740D0000740D00007C0D000003008218934202D019700133FAE770470000000000300F40000400400F400004030405060708090AA3
:400D40000B0C0E0F101112131415161718191B1C1D1E1F2021222325262728292A2B2E2F3031323334354300F8B5C046F8BC08BC9E4670477D0100000D040000F8B5C0466C
:400D8000F8BC08BC9E46704755010000A00D0000C00000209000000080000000000000000000000000FFFFFFFFFFFFFF10000000010000000000C05D80BB0000300000009B
:400DC000006CDC02040404000000000000000000000000000000000000000000000000000000000000000000660D000000000000000000000000000000000000000000002A
:400E000000000000000000000000000000000000000000000000000000000000000000000000000000000000E80000200000000000000000000000000000000000000000AA
:400E40000000000000000000000000000000000000000000000000000000000000000000000000000000000000000000000000000000000000000000000000000000000072
:400E80000000000000000000000000000000000000000000000000000000000000000000000000000000000000000000000000000000000000000000000000000000000032
:400EC00000000000000000000000000000000000000000000000000000000000000000000000000000000000000000000000000000000000000000000000000000000000F2
:400F000000000000000000000000000000000000000000000000000000000000000000000000000000000000000000000000000000000000000000000000000000000000B1
:0200000490303A
:02000000956108
:0200000490402A
:200000000000000000000000000000000000000000000000000000000000000000000000E0
:0200000490501A
:0C000000000204C81193110104CCA6F406
:0200000490600A
:0100000001FE
:00000001FF