:400000000010002011000000A1030000A103000010B500F0CDF9C04670B5114C23688025ED022B432360302000F076FA0D4A0E4B1A6010220D4B1A60802212060C4B1A60BB
:4000400025600C4A0C4B1A600C49092000F00AFA092000F0F1F90022094B1A6070BDC04600010B400600008004010B400C02024008010B40A00100800000024029070000E3
:400080000C020B4010B572B600240FE020486200131959000B00411889881A5AC31858880004104300F076F90134E4B2012CEDD999231B04174A1360EE210902164A1160E6
:4000C000164A1360164A1360164A1360164A117806230B43DBB213702222144B1A60144A144B1A600C22144B1A601432134B1A601F3A134B1A60134A134B1A600322134BB5
:400100001A60D8221201124B1A60FFF785FF10BD1C0D0000000001400C00014000500F4010500F4030500F4000700F400000044010100300080004400C0004401800044028
:400140000001044002001800080104400C0104400803044010B5064C2378002B07D1054B002B02D0044800E000BF0123237010BD5001002000000000180D0000084B10B514
:40018000002B03D00749084800E000BF07480368002B00D110BD064B002BFBD09847F9E70000000054010020180D0000C00000200000000030B54208050983086B40040088
:4001C000544063401900C4086240400968404240D243D3B25B000B43D8B230BD70B582B004006B46DE1D002333706A46951D9371FFF7E0FF307033789B011C43E4B22C7094
:400200002878C0B202B070BD82B2002304E0C85C121892B20133DBB2072BF8D9100A8218D043C0B27047C04670B50D2000F0FEFB552000F025FB284D287800F021FB274CF2
:40024000207800F01DFB607800F01AFBA07800F017FBE07800F014FB207900F011FB607900F00EFBA07900F00BFBE07900F008FB687800F005FB00F0C3FBC0B2184C2070EA
:4002800000F0BEFBC0B2607000F0BAFBC0B2A07000F0B6FBC0B2E07000F0B2FBC0B2207100F0AEFBC0B2607100F0AAFBC0B2A07100F0A6FBC0B2E071012000F067FCFA244F
:4002C0006400200000F006F9002000F05FFC200000F000F970BDC0466C010020C40000209C01002070B500F0CDFB012803D10122094B1A7002E00022074B1A70064D287A06
:40030000FFF76CFFC0B2054C20702900FFF77CFF6070FFF789FF70BDC40000206C01002010B5FFF7DFFF00F0B5FB10BD70B500F0B9FB012803D11122094B1A7002E0102292
:40034000074B1A70064D287AFFF748FFC0B2054C20702900FFF758FF6070FFF765FF70BDC40000206C01002010B5FFF7DFFF00F0A1FB10BD10B562B600F044FA034800F0A6
:40038000C7FB034800F0F4FBFEE7C046210300006903000010B50A00002100F0B5FC10BD10B500F085FC03680C2B00D1FEE7FEE770B50F4E0F4D13E029686B68AC6800229A
:4003C00002E001C901C30432A242FAD1E868002202E0002102C304328242FAD11035013E002EE9D100F06AFCFFF7C4FFFEE7C046010000007C0D000010B500230AE0032BB9
:4004000003D89A000949505800E009489900094A885001332F2BF2D9FFF734FE8022D205116801230B43136010BDC04600000000A1030000000000201F2318401E3B8340B3
:40044000014A13607047C04600E100E01F2318401E3B8340014A13607047C04680E100E001BE704770B504000D001F2802D90020FFF7F6FF1034A40080239B059C46644440
:400480002068256070BDC04670B504000E00032902D90020FFF7E4FF1F2C02D90020FFF7DFFF03252540ED00063500F087FBA408A400074B9C46644421680323AB409943E2
:4004C0000B003100A9401943216000F07BFB70BD00E400E010B5040006E0084B586800F063FB074B9C46644480231B029C42F4D8024B9868604300F057FB10BDD00000205E
:400500000080FFFF10B5034B1B7B584300F04CFB10BDC046D0000020F0B557464E46C0B483B0040000F04AFB0190E71E2D2F74D83F4B1B78DBB29C4208D83E4B1B78DBB2FA
:400540009A463D4B1B78DBB2994631E03B4B1B78DBB29C4208D83A4B1B78DBB29A46394B1B78DBB2994623E0374B1B78DBB29C4208D8364B1B78DBB29A46354B1B78DBB213
:40058000994615E0334B1B78DBB29C4208D8324B1B78DBB29A46314B1B78DBB2994607E02F4B1B78DBB29A462E4B1B78DBB299462D4BDE5D2F2E09D92A2C07D919222B4B61
:4005C0001A60052000F0F0FA192503E0274B1D683F231D40B54206D9234BDA5D234B1A60052000F0E1FA1F4B9C4664442378DBB21F4A13601F4B52461A601F4B4A461A6070
:400600000520FFF77FFFB5420AD2174BDA5D174B1A60052000F0C8FA02E00020FFF720FF019800F0CFFA03B00CBC91469A46F0BDC0F1FF0FC1F1FF0FC2F1FF0FC3F1FF0FB8
:40064000C4F1FF0FC5F1FF0FC6F1FF0FC7F1FF0FC8F1FF0FC9F1FF0FCAF1FF0FCBF1FF0FCCF1FF0FCDF1FF0F280D00002CFF0B4028FF0B401CFF0B4020FF0B40034B1868F4
:40068000C0231B02184000D00120704700010B4010B500F093FA044A1368C02109020B43136000F08FFA10BD00010B4010B500F085FA08490A68084B1A408024E401224312
:4006C0000A600A6813408022120213430B6000F079FA10BD00010B40FF3FFFFF70B5050000F06CFA0400FFF7C9FF002803D0FFF7DDFF012100E0002108482840084A1568E3
:40070000084B2B40184310601368012901D1FFF7BFFF200000F056FA70BDC0460404040010020B40FBFBFBFF10B5244B1B685B0715D5234B1B685B070ED5224BD96904200D
:4007400001401F4C22688A432260DA698243DA611B69002B00D098470420FFF7BFFF174B1B685B0518D5164B1B685B0510D5154BD9698022D2001140114802688A430260C7
:40078000D969114A0A40DA615B69002B00D098478020C000FFF7A2FF084B1B685B030CD5074B1B685B0304D5064B9B69002B00D098478020C002FFF791FF10BD10020B4020
:4007C000E400002070010020FFFBFFFF10B50B20FFF732FE10BDC04610B500F0FBF810BD10B500F085F810BD10B5054A1368802109060B431360FFF7E9FFFFF7EDFF10BD82
:400800000000074010B5064B1B78002B04D1FFF7E7FF0122024B1A70FFF7E6FF10BDC04690010020094B1A68094B1B689A420BD0074B1B6801330B2B00D10023054AD05C81
:40084000C0B2034A136000E000207047B4010020B8010020A4010020074B1B68074A1268934203D3054A1068181A04E0034A10681B1A0B3318007047B4010020B80100203F
:40088000144B1A68144B1B689A4208D1134B1B680F221340082B02D0114B186019E00D4B1A6801320A2A00D100220B4B1B689A42FBD002230B490B60C0B20B498854054901
:4008C0000A600A4A1268134203D1084A11680B4313607047B0010020C80100200802074040020740800F0740BC010020880F074010B51F4A1F4B1A6000241F4B1C601F4AAA
:400900001F4B1A601F4B204A136007211F4A11601F4A146006391F4A11601F4A13601F4B1C600B20FFF792FD03210B20FFF7ACFD1B490B20FFF796FD1A4B1C601A4B1C605A
:400940001A4B1C601A4B1C6004221A4B1A601A4B1C601A68194B1A80194B1C60194B1C60194B1C70194B1C60194B1C6010BDC0460B000002000007404000074001000A0026
:400980004800074007000080000307400403074010030740440007400002074004020740CD0B0000880E0740C80E0740480F0740080F0740C80F0740880F0740980100208B
:4009C000B4010020B8010020CC010020B0010020C8010020064A1168064B0B40902109040B431360044B1A88044B1A607047C04600000140FFFF0FFF98010020880F074063
:400A000010B5FFF729FF002802D0FFF70BFF00E00020054B1A68D8239B001A4203D01A00014B1A60002010BDC00F074070B503000F4A156800241460802189000D4A1160D7
:400A40000D4A166811680F208143013B1840084310600A4B1C60074B1B689B05FBD5084A044B1A60044B1E60014B1D6070BDC046880F0740800F0740000207404002074066
:400A8000F3070000024B1B68012018407047C04604010440024A1068012318401060704710010440024B1868400801231840704704000440034A10680223184010604008A7
:400AC000C0B2704710000440014B58647047C0460000002010B5040000F070F8044A1168044B0B40A4031C43146000F06BF810BD00E400E0FF3FFFFF0222014B1A607047D7
:400B000000E100E00222014B1A60704780E100E010B50400FFF7F6FF2000FFF7D5FF0320FFF7D8FFFFF7E8FF10BDC046014B18647047C0460000002010B5040000F03EF840
:400B4000044A1368C0218B43A4011C43146000F039F810BD00E400E00122014B1A60704700E100E00122014B1A60704780E100E010B50400FFF7F6FF2000FFF7D7FF0320CE
:400B8000FFF7DAFFFFF7E8FF10BDC04604490A68D2B240239A438001184010430860704700010440000000000230800804D0C0460138FDD1C046C046C0467047EFF31080CD
:400BC00072B6704780F310887047C04610B5274B1B68002B00D09847254B1B685B071DD5244B1B6801330B2B00D10023224A1268934205D1214B1B682022214B1A7006E085
:400C00001E4A1268D2B21F49CA541A4A13601E4B1B681B07E4D104221C4B1A601C4B1B689B0721D51B4B1A681B4B1B689A4213D0194B1B6801330A2B00D10023174AD25C42
:400C4000D2B217490A60144A1360164B1B680F221340082BE6D104E0134A136802218B4313600222114B1A6010BDC04694010020CC0F0740B4010020B80100204003074007
:400C8000CC010020A401002008030740C00F07408C0F0740B0010020C8010020BC0100204002074008020740880F0740800F0740014B18687047C046480100200E4B70B5A3
:400CC00000251E000D4CE41AA410A54204D0AB00F35898470135F8E700F03EF8084B00251E00084CE41AA410A54204D0AB00F35898470135F8E770BD640D0000640D00008B
:400D0000640D00006C0D000003008218934202D019700133FAE770470000000000300F40000400400F400004030405060708090A0B0C0E0F101112131415161718191B1CAE
:400D40001D1E1F2021222325262728292A2B2E2F3031323334354300F8B5C046F8BC08BC9E4670477D010000F9030000F8B5C046F8BC08BC9E46704755010000900D0000B3
:400D8000C00000209000000080000000000000000000000000FFFFFFFFFFFFFF10000000010000000000C05D80BB000030000000006CDC020404040000000000000000005B
:400DC000000000000000000000000000000000000000000000000000560D000000000000000000000000000000000000000000000000000000000000000000000000000090
:400E0000000000000000000000000000000000000000000000000000E8000020000000000000000000000000000000000000000000000000000000000000000000000000AA
:400E40000000000000000000000000000000000000000000000000000000000000000000000000000000000000000000000000000000000000000000000000000000000072
:400E80000000000000000000000000000000000000000000000000000000000000000000000000000000000000000000000000000000000000000000000000000000000032
:400EC00000000000000000000000000000000000000000000000000000000000000000000000000000000000000000000000000000000000000000000000000000000000F2
:400F000000000000000000000000000000000000000000000000000000000000000000000000000000000000000000000000000000000000000000000000000000000000B1
:0200000490303A
:020000008E7000
:0200000490402A
:200000000000000000000000000000000000000000000000000000000000000000000000E0
:0200000490501A
:0C000000000204C81193110104CCA003FD
:0200000490600A
:0100000001FE
:00000001FF