:400000000010002011000000DD030000DD03000010B500F0EBF9C04670B5134C23688022D20213432360182000F000FC22680F4B134023600E4A0F4B1A6010220E4B1A60B3
:40004000802212060D4B1A60002525600C4A0D4B1A600D49092000F08FFB092000F076FB0A4B1D6070BDC04600010B40FFFFFBFF0600008004010B400C02024008010B40DC
:40008000CF000080000002403D0A00000C020B4010B572B600240FE021486200131959000B00411889881A5AC31858880004104300F08EF90134E4B2012CEDD999231B04B4
:4000C000184A1360EE210902174A1160174A1360174A1360174A1360174A1360174A117806230B43DBB21370AD22154B1A60154A154B1A602023154A13604021144A116057
:40010000C0214903134A1160C0214900124A1160124A1360124A134B1A60FFF77DFF10BDCC0C0000000001400C00014000500F4010500F4020500F4030500F4000700F408A
:4001400000000440821D4300080004401800044000010440080104400802044000030440800D01000803044010B5064C2378002B07D1054B002B02D0044800E000BF01239C
:40018000237010BD5001002000000000C80C0000084B10B5002B03D00749084800E000BF07480368002B00D110BD064B002BFBD09847F9E70000000054010020C80C000073
:4001C000C00000200000000030B54208050983086B400400544063401900C4086240400968404240D243D3B25B000B43D8B230BD70B582B004006B46DE1D002333706A4640
:40020000951D9371FFF7E0FF307033789B011C43E4B22C702878C0B202B070BD82B2002304E0C85C121892B20133DBB2072BF8D9100A8218D043C0B27047C04670B562B606
:4002400000F034F900F04CFC002804D111225D4B1A7000265CE010225A4B1A7000F048FC040000F04DFC63426341424242411A420DD01122534B1A71002000F049FC012038
:4002800000F052FC012000F05BFC012640E000F02FFC040000F034FC6242624101384342434113420DD02222464B1A71012000F02FFC002000F038FC012000F041FC012602
:4002C00026E000F015FC040000F01AFC013C63426341424242411A420DD03322394B1A71012000F015FC012000F01EFC002000F027FC01260CE00022324B1A71012000F0F5
:4003000007FC012000F010FC012000F019FC01262C4C2078FFF76CFFC0B22B4D2870211DFFF77CFF6870FA20800000F05DFA0D2000F0E0F9552000F0F7F8287800F0F4F82F
:40034000002E1CD01F4C207900F0EEF8607900F0EBF8A07900F0E8F8E07900F0E5F8207A00F0E2F8607A00F0DFF8A07A00F0DCF8E07A00F0D9F8144B587800F0D5F800F0F4
:4003800093F9C0B2114C207000F08EF9C0B2607000F08AF9C0B2A07000F086F9C0B2E07000F082F9C0B2207100F07EF9C0B2607100F07AF9C0B2A07100F076F9C0B2E07153
:4003C00040E7C046C40000206C0100209C01002010B50A00002100F06FFC10BD10B500F03FFC03680C2B00D1FEE7FEE770B50F4E0F4D13E029686B68AC68002202E001C946
:4004000001C30432A242FAD1E868002202E0002102C304328242FAD11035013E002EE9D100F024FCFFF70AFFFEE7C046010000002C0D000010B500230AE0032B03D89A00FF
:400440000949505800E009489900094A885001332F2BF2D9FFF71CFE8022D205116801230B43136010BDC04600000000DD0300000000002010B50B2000F068F910BDC04666
:4004800010B500F0FBF810BD10B500F085F810BD10B5054A1368802109060B431360FFF7E9FFFFF7EDFF10BD0000074010B5064B1B78002B04D1FFF7E7FF0122024B1A7075
:4004C000FFF7E6FF10BDC04670010020094B1A68094B1B689A420BD0074B1B6801330B2B00D10023054AD05CC0B2034A136000E000207047B4010020B8010020A40100204F
:40050000074B1B68074A1268934203D3054A1068181A04E0034A10681B1A0B3318007047B4010020B8010020144B1A68144B1B689A4208D1134B1B680F221340082B02D0FC
:40054000114B186019E00D4B1A6801320A2A00D100220B4B1B689A42FBD002230B490B60C0B20B49885405490A600A4A1268134203D1084A11680B4313607047B0010020B1
:40058000C80100200802074040020740800F0740BC010020880F074010B51F4A1F4B1A6000241F4B1C601F4A1F4B1A601F4B204A136007211F4A11601F4A146006391F4AB0
:4005C00011601F4A13601F4B1C600B2000F0C8F803210B2000F0E2F81B490B2000F0CCF81A4B1C601A4B1C601A4B1C601A4B1C6004221A4B1A601A4B1C601A68194B1A80A7
:40060000194B1C60194B1C60194B1C70194B1C60194B1C6010BDC0460B000002000007404000074001000A00480007400700008000030740040307401003074044000740FE
:4006400000020740040207407D0B0000880E0740C80E0740480F0740080F0740C80F0740880F074078010020B4010020B8010020CC010020B0010020C8010020064A1168B3
:40068000064B0B40902109040B431360044B1A88044B1A607047C04600000140FFFF0FFF78010020880F074010B50B2000F058F8FFF726FF002806D00B2000F047F8FFF74B
:4006C00005FF040007E0094B1C680422084B1A600B2000F03BF8064B1868D82292001A600002D8239B021840204310BD40030740C00F074070B503000F4A156800241460C3
:40070000802189000D4A11600D4A166811680F208143013B1840084310600A4B1C60074B1B689B05FBD5084A044B1A60044B1E60014B1D6070BDC046880F0740800F074089
:400740000002074040020740F30700001F2318401E3B8340014A13607047C04600E100E01F2318401E3B8340014A13607047C04680E100E001BE704770B504000D001F2856
:4007800002D90020FFF7F6FF1034A40080239B059C4664442068256070BDC04670B504000E00032902D90020FFF7E4FF1F2C02D90020FFF7DFFF03252540ED00063500F068
:4007C000D5F9A408A400074B9C46644421680323AB4099430B003100A9401943216000F0C9F970BD00E400E010B5040006E0084B586800F0B1F9074B9C46644480231B02EC
:400800009C42F4D8024B9868604300F0A5F910BDD00000200080FFFF10B5034B1B7B584300F09AF910BDC046D0000020F0B557464E46C0B483B0040000F098F90190E71E33
:400840002D2F74D83F4B1B78DBB29C4208D83E4B1B78DBB29A463D4B1B78DBB2994631E03B4B1B78DBB29C4208D83A4B1B78DBB29A46394B1B78DBB2994623E0374B1B78C3
:40088000DBB29C4208D8364B1B78DBB29A46354B1B78DBB2994615E0334B1B78DBB29C4208D8324B1B78DBB29A46314B1B78DBB2994607E02F4B1B78DBB29A462E4B1B7837
:4008C000DBB299462D4BDE5D2F2E09D92A2C07D919222B4B1A60052000F03EF9192503E0274B1D683F231D40B54206D9234BDA5D234B1A60052000F02FF91F4B9C46644482
:400900002378DBB21F4A13601F4B52461A601F4B4A461A600520FFF77FFFB5420AD2174BDA5D174B1A60052000F016F902E00020FFF720FF019800F01DF903B00CBC9146B6
:400940009A46F0BDC0F1FF0FC1F1FF0FC2F1FF0FC3F1FF0FC4F1FF0FC5F1FF0FC6F1FF0FC7F1FF0FC8F1FF0FC9F1FF0FCAF1FF0FCBF1FF0FCCF1FF0FCDF1FF0FD80C000039
:400980002CFF0B4028FF0B401CFF0B4020FF0B40034B1868C0231B02184000D00120704700010B4010B500F0E1F8044A1368C02109020B43136000F0DDF810BD00010B4083
:4009C00010B500F0D3F808490A68084B1A408024E40122430A600A6813408022120213430B6000F0C7F810BD00010B40FF3FFFFF70B5050000F0BAF80400FFF7C9FF0028B9
:400A000003D0FFF7DDFF012100E0002108482840084A1568084B2B40184310601368012901D1FFF7BFFF200000F0A4F870BDC0460404040010020B40FBFBFBFF10B5244B47
:400A40001B685B0715D5234B1B685B070ED5224BD969042001401F4C22688A432260DA698243DA611B69002B00D098470420FFF7BFFF174B1B685B0518D5164B1B685B052A
:400A800010D5154BD9698022D2001140114802688A430260D969114A0A40DA615B69002B00D098478020C000FFF7A2FF084B1B685B030CD5074B1B685B0304D5064B9B69CB
:400AC000002B00D098478020C002FFF791FF10BD10020B40E40000207C010020FFFBFFFF024B1868C00901231840704704000440024B1B68012018407047C0460400044012
:400B0000024B186840090123184070470403044004490A68D2B240239A43800118401043086070470001044004490A68D2B204239A43800018401043086070470000044039
:400B400004490A68D2B208239A43C0001840104308607047000004400230800804D0C0460138FDD1C046C046C0467047EFF3108072B6704780F310887047C04610B5274BA8
:400B80001B68002B00D09847254B1B685B071DD5244B1B6801330B2B00D10023224A1268934205D1214B1B682022214B1A7006E01E4A1268D2B21F49CA541A4A13601E4B77
:400BC0001B681B07E4D104221C4B1A601C4B1B689B0721D51B4B1A681B4B1B689A4213D0194B1B6801330A2B00D10023174AD25CD2B217490A60144A1360164B1B680F227B
:400C00001340082BE6D104E0134A136802218B4313600222114B1A6010BDC04674010020CC0F0740B4010020B801002040030740CC010020A401002008030740C00F074081
:400C40008C0F0740B0010020C8010020BC0100204002074008020740880F0740800F0740014B18687047C046480100200E4B70B500251E000D4CE41AA410A54204D0AB0049
:400C8000F35898470135F8E700F03EF8084B00251E00084CE41AA410A54204D0AB00F35898470135F8E770BD140D0000140D0000140D00001C0D000003008218934202D091
:400CC00019700133FAE770470000000000300F40000400400F400004030405060708090A0B0C0E0F101112131415161718191B1C1D1E1F2021222325262728292A2B2E2FC8
:400D00003031323334354300F8B5C046F8BC08BC9E4670479101000035040000F8B5C046F8BC08BC9E46704769010000400D0000C000002090000000800000000000000043
:400D4000000000001000000000FFFFFFFFFFFFFF010000000000E02EC05D00001800000000366E010404040000000000000000000000000000000000000000000000000075
:400D80000000000000000000060D00000000000000000000000000000000000000000000000000000000000000000000000000000000000000000000000000000000000020
:400DC0000000000000000000E800002000000000000000000000000000000000000000000000000000000000000000000000000000000000000000000000000000000000EB
:400E000000000000000000000000000000000000000000000000000000000000000000000000000000000000000000000000000000000000000000000000000000000000B2
:400E40000000000000000000000000000000000000000000000000000000000000000000000000000000000000000000000000000000000000000000000000000000000072
:400E80000000000000000000000000000000000000000000000000000000000000000000000000000000000000000000000000000000000000000000000000000000000032
:400EC00000000000000000000000000000000000000000000000000000000000000000000000000000000000000000000000000000000000000000000000000000000000F2
:0200000490303A
:02000000563078
:0200000490402A
:200000000000000000000000000000000000000000000000000000000000000000000000E0
:0200000490501A
:0C000000000204C81193110104CC67C376
:0200000490600A
:0100000001FE
:00000001FF