:400000000010002011000000950300009503000010B500F0C7F9C04670B5144C23688025ED022B432360302000F058FA104A114B1A601022104B1A601032104B1A608022BD
:4000400012060F4B1A6025600E4A0F4B1A600F4A0F4B1A600F49092000F0FEF9092000F0E5F900220C4B1A6070BDC04600010B400600008004010B40080202400C02024073
:4000800008010B402200008000000240CF00008040000240ED0600000C020B4010B572B600240FE022486200131959000B00411889881A5AC31858880004104300F064F952
:4000C0000134E4B2012CEDD999231B04194A1360EE210902184A11609921184A1160184A1360184A1360184A1360184A117806230B43DBB213702023154A1360C4218902A1
:40010000144A1160144A1360C0225203134B1A60D8221201124B1A600223124A13603121114A1160114A1360FFF776FF10BDC046940F0000000001400C000140100001408C
:4001400000500F4010500F4030500F4000700F40000004400800044018000440080104400803044000040440080404401804044010B5064C2378002B07D1054B002B02D021
:40018000044800E000BF0123237010BD5001002000000000300F0000084B10B5002B03D00749084800E000BF07480368002B00D110BD064B002BFBD09847F9E70000000042
:4001C00054010020300F0000C00000200000000030B54208050983086B400400544063401900C4086240400968404240D243D3B25B000B43D8B230BD70B582B004006B46FD
:40020000DE1D002333706A46951D9371FFF7E0FF307033789B011C43E4B22C702878C0B202B070BD82B2002304E0C85C121892B20133DBB2072BF8D9100A8218D043C0B28F
:400240007047C04630B583B005000023002404E0295D01AAD15401340133022BF8DD01A800F08EFD0F4B5870002304E0295D01AAD15401340133022BF8DD01A800F080FD94
:40028000084B9870002304E0295D01AAD15401340133022BF8DD01A800F072FD014BD87003B030BDC400002010B50D2000F05CFB552000F099FA094B187800F095FA002443
:4002C00004E0074B185D00F08FFA0134072CF8DD024B587800F088FA10BDC0466C010020C400002070B584B062B600F06DFA00F087FB012000F064FB204800F023FC00F0B9
:400300000BFCC0B25728FAD132E000F005FCC0B2002808D00300303BDBB2092B03D801AB1855013464B2092C24D101A800F00AFC0D2000F083FB0A2000F080FB01A8FFF77F
:4003400081FF0F4E307AFFF757FFC0B20D4D28703100FFF767FF6870FFF7A6FF002303E0002101AAD1540133082BF9DD582501E000245925582DC8D1C1E7C046340F000003
:40038000C40000206C01002010B50A00002100F029FD10BD10B500F0F9FC03680C2B00D1FEE7FEE770B50F4E0F4D13E029686B68AC68002202E001C901C30432A242FAD152
:4003C000E868002202E0002102C304328242FAD11035013E002EE9D100F0DEFCFFF782FFFEE7C04601000000F810000010B500230AE0032B03D89A000949505800E00948BD
:400400009900094A885001332F2BF2D9FFF746FE8022D205116801230B43136010BDC0460000000095030000000000201F2318401E3B8340014A13607047C04600E100E011
:400440001F2318401E3B8340014A13607047C04680E100E001BE704770B504000D001F2802D90020FFF7F6FF1034A40080239B059C4664442068256070BDC04670B5040013
:400480000E00032902D90020FFF7E4FF1F2C02D90020FFF7DFFF03252540ED00063500F069FBA408A400074B9C46644421680323AB4099430B003100A9401943216000F077
:4004C0005DFB70BD00E400E010B5034B1B7B584300F046FB10BDC046D0000020F0B557464E46C0B483B0040000F044FB0190E71E2D2F74D83F4B1B78DBB29C4208D83E4B9C
:400500001B78DBB29A463D4B1B78DBB2994631E03B4B1B78DBB29C4208D83A4B1B78DBB29A46394B1B78DBB2994623E0374B1B78DBB29C4208D8364B1B78DBB29A46354B53
:400540001B78DBB2994615E0334B1B78DBB29C4208D8324B1B78DBB29A46314B1B78DBB2994607E02F4B1B78DBB29A462E4B1B78DBB299462D4BDE5D2F2E09D92A2C07D932
:4005800019222B4B1A60052000F0EAFA192503E0274B1D683F231D40B54206D9234BDA5D234B1A60052000F0DBFA1F4B9C4664442378DBB21F4A13601F4B52461A601F4B15
:4005C0004A461A600520FFF77FFFB5420AD2174BDA5D174B1A60052000F0C2FA02E00020FFF738FF019800F0C9FA03B00CBC91469A46F0BDC0F1FF0FC1F1FF0FC2F1FF0FA5
:40060000C3F1FF0FC4F1FF0FC5F1FF0FC6F1FF0FC7F1FF0FC8F1FF0FC9F1FF0FCAF1FF0FCBF1FF0FCCF1FF0FCDF1FF0FA00F00002CFF0B4028FF0B401CFF0B4020FF0B40C6
:40064000034B1868C0231B02184000D00120704700010B4010B500F08DFA044A1368C02109020B43136000F089FA10BD00010B4010B500F07FFA08490A68084B1A408024E0
:40068000E40122430A600A6813408022120213430B6000F073FA10BD00010B40FF3FFFFF70B5050000F066FA0400FFF7C9FF002803D0FFF7DDFF012100E0002108482840B4
:4006C000084A1568084B2B40184310601368012901D1FFF7BFFF200000F050FA70BDC0460404040010020B40FBFBFBFF10B5244B1B685B0715D5234B1B685B070ED5224BEB
:40070000D969042001401F4C22688A432260DA698243DA611B69002B00D098470420FFF7BFFF174B1B685B0518D5164B1B685B0510D5154BD9698022D200114011480268D0
:400740008A430260D969114A0A40DA615B69002B00D098478020C000FFF7A2FF084B1B685B030CD5074B1B685B0304D5064B9B69002B00D098478020C002FFF791FF10BD8E
:4007800010020B40E400002070010020FFFBFFFF10B50B20FFF74AFE10BDC04610B500F0CDF810BD10B500F057F810BD10B5054A1368802109060B431360FFF7E9FFFFF762
:4007C000EDFF10BD0000074010B5064B1B78002B04D1FFF7E7FF0122024B1A70FFF7E6FF10BDC04690010020144B1A68144B1B689A4208D1134B1B680F221340082B02D039
:40080000114B186019E00D4B1A6801320A2A00D100220B4B1B689A42FBD002230B490B60C0B20B49885405490A600A4A1268134203D1084A11680B4313607047AC010020F2
:40084000C40100200802074040020740800F0740B8010020880F074010B51F4A1F4B1A6000241F4B1C601F4A1F4B1A601F4B204A136007211F4A11601F4A146006391F4AF5
:4008800011601F4A13601F4B1C600B20FFF7D8FD03210B20FFF7F2FD1B490B20FFF7DCFD1A4B1C601A4B1C601A4B1C601A4B1C6004221A4B1A601A4B1C601A68194B1A8093
:4008C000194B1C60194B1C60194B1C70194B1C60194B1C6010BDC0460B000002000007404000074001000A004800074007000080000307400403074010030740440007403C
:400900000002074004020740850B0000880E0740C80E0740480F0740080F0740C80F0740880F074098010020B0010020B4010020C8010020AC010020C4010020064A1168DC
:40094000064B0B40902109040B431360044B1A88044B1A607047C04600000140FFFF0FFF98010020880F074070B503000F4A156800241460802189000D4A11600D4A1668A4
:4009800011680F208143013B1840084310600A4B1C60074B1B689B05FBD5084A044B1A60044B1E60014B1D6070BDC046880F0740800F07400002074040020740F307000002
:4009C00004490A68D2B240239A43800118401043086070470001044010B500F08BF810BD10B500F039F810BD10B5044A1368802109060B431360FFF7EFFF10BD0000064036
:400A000010B5064B1B78002B04D1FFF7E9FF0122024B1A70FFF7E8FF10BDC0469A010020014B18687047C04640030640024B1B680F2018407047C04608030640044B1B6881
:400A40000F221340082BF9D0024B18607047C0460802064040020640134A144B1A600023134A13601349144A1160144A14490A6007201449086014490B600638134908606D
:400A800013490A60134A1360134A1360134A1360134A1360134A1360134A1360134A13601268134B1A8070470B000002000006404000064001000A0048000640070000809E
:400AC000000306400403064010030640440006400002064004020640880E0640C80E0640480F0640080F0640C80F0640880F06409C01002005490B68F0229343603A1343A7
:400B00000B60034B1A88034B1A607047100001409C010020880F064010B5FFF787FF002802D0FFF77DFF00E00020054B1A68D8239B001A4203D01A00014B1A60002010BDDF
:400B4000C00F064070B50500002402E0FFF776FF0134285D0028F9D170BDC046000000000230800804D0C0460138FDD1C046C046C0467047EFF3108072B6704780F3108826
:400B80007047C04610B5274B1B68002B00D09847254B1B685B071DD5244B1B6801330B2B00D10023224A1268934205D1214B1B682022214B1A7006E01E4A1268D2B21F49E1
:400BC000CA541A4A13601E4B1B681B07E4D104221C4B1A601C4B1B689B0721D51B4B1A681B4B1B689A4213D0194B1B6801330A2B00D10023174AD25CD2B217490A60144AA5
:400C00001360164B1B680F221340082BE6D104E0134A136802218B4313600222114B1A6010BDC04694010020CC0F0740B0010020B401002040030740C8010020A001002051
:400C400008030740C00F07408C0F0740AC010020C4010020B80100204002074008020740880F0740800F0740002243088B4274D303098B425FD3030A8B4244D3030B8B42B9
:400C800028D3030C8B420DD3FF22090212BA030C8B4202D31212090265D0030B8B4219D300E0090AC30B8B4201D3CB03C01A5241830B8B4201D38B03C01A5241430B8B42C7
:400CC00001D34B03C01A5241030B8B4201D30B03C01A5241C30A8B4201D3CB02C01A5241830A8B4201D38B02C01A5241430A8B4201D34B02C01A5241030A8B4201D30B0208
:400D0000C01A5241CDD2C3098B4201D3CB01C01A524183098B4201D38B01C01A524143098B4201D34B01C01A524103098B4201D30B01C01A5241C3088B4201D3CB00C01AFE
:400D4000524183088B4201D38B00C01A524143088B4201D34B00C01A5241411A00D20146524110467047FFE701B5002000F006F802BDC0460029F7D076E770477047C046D4
:400D800010B50A22002100F0C7F810BD014B18687047C046480100200E4B70B500251E000D4CE41AA410A54204D0AB00F35898470135F8E700F08EF9084B00251E00084CE1
:400DC000E41AA410A54204D0AB00F35898470135F8E770BDE0100000E0100000E0100000E810000003008218934202D019700133FAE77047F0B51E00454B87B01B6801926E
:400E0000029308220B00059003911C7802995D1C09194878104001D02B00F6E72D2C04D19D1C5C780123009304E000902B2C01D15C789D1C002E02D0102E0AD162E0302CB9
:400E40005ED120222B789343582B54D110266C780235009F31007B1E9F412E4BFF183800FFF788FF380004913100FFF7FDFE00230322070094461800029A1219517804221B
:400E8000114201D0303C07E06246114017D03722012900D02032A41AA64210DD5A1C0BD0B84207D802D1049B9C4203DC70430123201801E001235B422C780135DCE75A1C86
:400EC0000BD10098059A431E9841124BC01822231360019B002B0AD117E0009A002A00D04042019A002A10D0039A002B00D06A1E019B1A6009E03024002EAAD10826A8E78B
:400F00000A26A6E7302C9CD0A3E707B0F0BDC0464C010020FFFFFF7F10B513000A00010002480068FFF766FF10BDC0464801002000000000496E74726F647563652074687A
:400F4000652076616C75657320666F72207468652052474220636F6C6F7273207573696E672074686973207061747465726E3A20577272726767676262622E0A0D20457827
:400F8000616D706C653A20573235353039303033300A0D0000300F40000400400F400004030405060708090A0B0C0E0F101112131415161718191B1C1D1E1F20212223250B
:400FC000262728292A2B2E2F30313233343543000020202020202020202028282828282020202020202020202020202020202020208810101010101010101010101010109F
:401000001004040404040404040404101010101010104141414141410101010101010101010101010101010101010101101010101010424242424242020202020202020272
:4010400002020202020202020202020210101010200000000000000000000000000000000000000000000000000000000000000000000000000000000000000000000000F8
:401080000000000000000000000000000000000000000000000000000000000000000000000000000000000000000000000000000000000000000000000000000000000030
:4010C0000000000000000000000000000000000000000000F8B5C046F8BC08BC9E46704799010000ED030000F8B5C046F8BC08BC9E4670477101000008110000C00000206F
:4011000090000000800000000000000089000000FFFFFFFF10000000010000000000C05D80BB000030000000006CDC0204040400000000000000000000000000000000002B
:4011400000000000000000000000000000000000CE0F0000000000000000000000000000000000000000000000000000000000000000000000000000000000000000000092
:4011800000000000000000000000000000000000E8000020D00F00000000000000000000000000000000000000000000000000000000000000000000000000000000000048
:4011C00000000000000000000000000000000000000000000000000000000000000000000000000000000000000000000000000000000000000000000000000000000000EF
:4012000000000000000000000000000000000000000000000000000000000000000000000000000000000000000000000000000000000000000000000000000000000000AE
:40124000000000000000000000000000000000000000000000000000000000000000000000000000000000000000000000000000000000000000000000000000000000006E
:40128000000000000000000000000000000000000000000000000000000000000000000000000000000000000000000000000000000000000000000000000000000000002E
:0200000490303A
:0200000034D6F4
:0200000490402A
:200000000000000000000000000000000000000000000000000000000000000000000000E0
:0200000490501A
:0C000000000204C81193110104CD4669F0
:0200000490600A
:0100000001FE
:00000001FF