:4000000000100020110000005D0500005D05000010B500F0ABFAC04670B5174C23688025ED022B432360302000F054FB134A144B1A601022134B1A601032134B1A60103298
:40004000124B1A6080221206114B1A602560114A114B1A60114A124B1A60124A124B1A601249092000F0DCFA092000F0C3FA00220F4B1A6070BDC04600010B4006000080E3
:4000800004010B40080202400C0202403002024008010B402200008000000240CF00008040000240BF03008080000240E50800000C020B4010B572B600240FE031486200B2
:4000C000131959000B00411889881A5AC31858880004104300F03CFA0134E4B2012CEDD928490C312848203000F018FA274A284B1A60C0229204274B1A60EE221202264BD5
:400100001A609922254B1A6099231B04244A1360C5210904234A1160234A13608A21C905224A1160224A136022490B783C22934314221343DBB20B701F4A117816230B43CF
:40014000DBB21370AC221D4B1A601D4A1D4B1A6020221D4B1A6020321C4B1A60C02252031B4B1A60D82212011A4B1A6002231A4A13603121194A1160194A1360FFF74CFFE3
:4001800010BDC046C4140000441600000033990000000140040001400C0001401000014000500F4008500F4010500F4018500F4030500F4001700F4000700F40000004400C
:4001C000801D4300080004401800044000010440080104400803044000040440080404401804044010B5064C2378002B07D1054B002B02D0044800E000BF0123237010BD2D
:40020000500100200000000060140000084B10B5002B03D00749084800E000BF07480368002B00D110BD064B002BFBD09847F9E7000000005401002060140000C000002032
:400240000000000030B54208050983086B400400544063401900C4086240400968404240D243D3B25B000B43D8B230BD70B582B004006B46DE1D002333706A46951D9371E9
:40028000FFF7E0FF307033789B011C43E4B22C702878C0B202B070BD82B2002304E0C85C121892B20133DBB2072BF8D9100A8218D043C0B27047C04630B583B00D005728D5
:4002C0002ED11022274B1A700023002404E0295D01AAD15401340133022BF8DD01A800F0E7FF204B1871002304E0295D01AAD15401340133022BF8DD01A800F0D9FF194BD5
:400300005871002304E0295D01AAD15401340133022BF8DD01A800F0CBFF124B98711FE00122104B1A70522802D100221A7108E0472803D101220B4B1A7102E01022094BCB
:400340001A710023002204E0A85C01A9C85401320133022BF8DD01A800F0AAFF014B587103B030BDC400002070B584B000F008FDC5B2572D05D0522D03D0472D01D0422D97
:4003800036D1572D01D14D2600E0532600242BE000F0F6FCC0B2002808D00300303BDBB2092B03D801AB1855013464B2092C01D14D2E03D0032C17D1532E15D101A800F0B7
:4003C000F5FC0D2000F06EFC0A2000F06BFC01A92800FFF771FF002303E0002101AAD1540133082BF9DD5826582ED1D1012000E0002004B070BDC04610B5002405E000F02C
:40040000DDFBC0B2064B18550134092CF7DD044AD178044B19701179597052799A7010BDA8010020A401002010B504000D2000F0DBFB552000F002FB0C4B187800F0FEFA97
:40044000012C0FD106E00A4B1B19187900F0F6FA013400E00024072CF5DD044B587800F0EDFA01E0FFF7C8FF10BDC0466C010020C400002010B5054C207800F0A9FD60785D
:4004800000F032FDA07800F0BBFC10BDA401002070B562B600F094FA00F0E6FB00F0E6FD00F070FD00F0FAFC002000F091FD002000F01AFD002000F0A3FC154800F076FCF7
:4004C000FFF752FF00280DD0124C2078FFF7CEFEC0B2114D2870211DFFF7DEFE68700120FFF7A2FF00F06EFC0028E9D11122094B1A701130FFF7BAFE074B18700020FFF7C4
:4005000093FFFFF7B7FF642000F0C2F8D8E7C04664140000C40000206C010020F0B50025002711E0BB00C658F3B2FF22964308E06A008A181478A419527822700135013B3C
:40054000DBB2002BF4D10137072FEBD9F0BDC04610B50A00002100F0DDFE10BD10B500F0ADFE03680C2B00D1FEE7FEE770B50F4E0F4D13E029686B68AC68002202E001C9DD
:4005800001C30432A242FAD1E868002202E0002102C304328242FAD11035013E002EE9D100F092FEFFF774FFFEE7C04601000000DC17000010B500230AE0032B03D89A00EA
:4005C0000949505800E009489900094A885001332F2BF2D9FFF76EFD8022D205116801230B43136010BDC046000000005D050000000000201F2318401E3B8340014A1360B2
:400600007047C04600E100E01F2318401E3B8340014A13607047C04680E100E001BE704770B504000D001F2802D90020FFF7F6FF1034A40080239B059C466444206825602F
:4006400070BDC04670B504000E00032902D90020FFF7E4FF1F2C02D90020FFF7DFFF03252540ED00063500F01DFDA408A400074B9C46644421680323AB4099430B00310059
:40068000A9401943216000F011FD70BD00E400E010B5040006E0084B586800F0F9FC074B9C46644480231B029C42F4D8024B9868604300F0EDFC10BDD00000200080FFFF94
:4006C00010B5034B1B7B584300F0E2FC10BDC046D0000020F0B557464E46C0B483B0040000F0E0FC0190E71E2D2F74D83F4B1B78DBB29C4208D83E4B1B78DBB29A463D4B21
:400700001B78DBB2994631E03B4B1B78DBB29C4208D83A4B1B78DBB29A46394B1B78DBB2994623E0374B1B78DBB29C4208D8364B1B78DBB29A46354B1B78DBB2994615E0E5
:40074000334B1B78DBB29C4208D8324B1B78DBB29A46314B1B78DBB2994607E02F4B1B78DBB29A462E4B1B78DBB299462D4BDE5D2F2E09D92A2C07D919222B4B1A600520D4
:4007800000F086FC192503E0274B1D683F231D40B54206D9234BDA5D234B1A60052000F077FC1F4B9C4664442378DBB21F4A13601F4B52461A601F4B4A461A600520FFF702
:4007C0007FFFB5420AD2174BDA5D174B1A60052000F05EFC02E00020FFF720FF019800F065FC03B00CBC91469A46F0BDC0F1FF0FC1F1FF0FC2F1FF0FC3F1FF0FC4F1FF0F1F
:40080000C5F1FF0FC6F1FF0FC7F1FF0FC8F1FF0FC9F1FF0FCAF1FF0FCBF1FF0FCCF1FF0FCDF1FF0F841600002CFF0B4028FF0B401CFF0B4020FF0B40034B1868C0231B0290
:40084000184000D00120704700010B4010B500F029FC044A1368C02109020B43136000F025FC10BD00010B4010B500F01BFC08490A68084B1A408024E40122430A600A68AC
:4008800013408022120213430B6000F00FFC10BD00010B40FF3FFFFF70B5050000F002FC0400FFF7C9FF002803D0FFF7DDFF012100E0002108482840084A1568084B2B400F
:4008C000184310601368012901D1FFF7BFFF200000F0ECFB70BDC0460404040010020B40FBFBFBFF10B5244B1B685B0715D5234B1B685B070ED5224BD969042001401F4CC7
:4009000022688A432260DA698243DA611B69002B00D098470420FFF7BFFF174B1B685B0518D5164B1B685B0510D5154BD9698022D2001140114802688A430260D969114A14
:400940000A40DA615B69002B00D098478020C000FFF7A2FF084B1B685B030CD5074B1B685B0304D5064B9B69002B00D098478020C002FFF791FF10BD10020B40E4000020F7
:4009800070010020FFFBFFFF10B50B20FFF732FE10BDC04610B500F0FBF810BD10B500F085F810BD10B5054A1368802109060B431360FFF7E9FFFFF7EDFF10BD000007407D
:4009C00010B5064B1B78002B04D1FFF7E7FF0122024B1A70FFF7E6FF10BDC04690010020094B1A68094B1B689A420BD0074B1B6801330B2B00D10023054AD05CC0B2034A48
:400A0000136000E000207047C4010020C8010020B4010020074B1B68074A1268934203D3054A1068181A04E0034A10681B1A0B3318007047C4010020C8010020144B1A680B
:400A4000144B1B689A4208D1134B1B680F221340082B02D0114B186019E00D4B1A6801320A2A00D100220B4B1B689A42FBD002230B490B60C0B20B49885405490A600A4A62
:400A80001268134203D1084A11680B4313607047C0010020D80100200802074040020740800F0740CC010020880F074010B51F4A1F4B1A6000241F4B1C601F4A1F4B1A6092
:400AC0001F4B204A136007211F4A11601F4A146006391F4A11601F4A13601F4B1C600B20FFF792FD03210B20FFF7ACFD1B490B20FFF796FD1A4B1C601A4B1C601A4B1C609C
:400B00001A4B1C6004221A4B1A601A4B1C601A68194B1A80194B1C60194B1C60194B1C70194B1C60194B1C6010BDC0460B000002000007404000074001000A0048000740B6
:400B400007000080000307400403074010030740440007400002074004020740B5100000880E0740C80E0740480F0740080F0740C80F0740880F074098010020C401002086
:400B8000C8010020DC010020C0010020D8010020064A1168064B0B40902109040B431360044B1A88044B1A607047C04600000140FFFF0FFF98010020880F074010B5FFF77B
:400BC00029FF002802D0FFF70BFF00E00020054B1A68D8239B001A4203D01A00014B1A60002010BDC00F074070B503000F4A156800241460802189000D4A11600D4A1668FC
:400C000011680F208143013B1840084310600A4B1C60074B1B689B05FBD5084A044B1A60044B1E60014B1D6070BDC046880F0740800F07400002074040020740F30700007F
:400C400010B500F08BF810BD10B500F039F810BD10B5044A1368802109060B431360FFF7EFFF10BD0000064010B5064B1B78002B04D1FFF7E9FF0122024B1A70FFF7E8FF68
:400C800010BDC0469A010020014B18687047C04640030640024B1B680F2018407047C04608030640044B1B680F221340082BF9D0024B18607047C046080206404002064083
:400CC000134A144B1A600023134A13601349144A1160144A14490A6007201449086014490B6006381349086013490A60134A1360134A1360134A1360134A1360134A1360EF
:400D0000134A1360134A13601268134B1A8070470B000002000006404000064001000A004800064007000080000306400403064010030640440006400002064004020640E4
:400D4000880E0640C80E0640480F0640080F0640C80F0640880F06409C01002005490B68F0229343603A13430B60034B1A88034B1A607047100001409C010020880F06406C
:400D800010B5FFF787FF002802D0FFF77DFF00E00020054B1A68D8239B001A4203D01A00014B1A60002010BDC00F064070B50500002402E0FFF776FF0134285D0028F9D1C6
:400DC00070BDC046024B1868C00901231840704704000440034A117880235B420B43DBB21370704771000F40014B18707047C04601000F40014B18707047C04641000F40C2
:400E0000014B18707047C04621000F40014B18707047C04681000F40014B1878C0B2704761000F40014B1878C0B2704751000F4010B501E0FFF7F6FFFFF7EEFFC306F9D4EC
:400E400010BDC04610B513490B783F2293430C221343DBB20B70104C227801231343DBB22370FF20FFF7C0FFFF20FFF7C3FF7F20FFF7C6FF0020FFF7C9FF00F013F922782F
:400E800010231343DBB2237000F010F9FFF7D0FF10BDC04671000F4091000F4010B5064B1B78002B04D1FFF7CDFF0122024B1A70FFF790FF10BDC0469E010020034A117806
:400EC00080235B420B43DBB21370704770000F40014B18707047C04600000F40014B18707047C04640000F40014B18707047C04620000F40014B18707047C04680000F407E
:400F0000014B1878C0B2704760000F40014B1878C0B2704750000F4010B501E0FFF7F6FFFFF7EEFFC306F9D410BDC04610B513490B783F2293430C221343DBB20B70104CB9
:400F4000227801231343DBB22370FF20FFF7C0FFFF20FFF7C3FF7F20FFF7C6FF0020FFF7C9FF00F09FF8227810231343DBB2237000F09CF8FFF7D0FF10BDC04670000F40B5
:400F800090000F4010B5064B1B78002B04D1FFF7CDFF0122024B1A70FFF790FF10BDC0469F010020034A117880235B420B43DBB21370704772000F40014B18707047C04658
:400FC00002000F40014B18707047C04642000F40014B18707047C04622000F40014B18707047C04682000F40014B1878C0B2704762000F40014B1878C0B2704752000F40BE
:4010000010B501E0FFF7F6FFFFF7EEFFC306F9D410BDC04610B513490B783F2293430C221343DBB20B70104C227801231343DBB22370FF20FFF7C0FFFF20FFF7C3FF7F2092
:40104000FFF7C6FF0020FFF7C9FF00F02BF8227810231343DBB2237000F028F8FFF7D0FF10BDC04672000F4092000F4010B5064B1B78002B04D1FFF7CDFF0122024B1A70D2
:40108000FFF790FF10BDC046A0010020000000000230800804D0C0460138FDD1C046C046C0467047EFF3108072B6704780F310887047C04610B5274B1B68002B00D0984706
:4010C000254B1B685B071DD5244B1B6801330B2B00D10023224A1268934205D1214B1B682022214B1A7006E01E4A1268D2B21F49CA541A4A13601E4B1B681B07E4D104220F
:401100001C4B1A601C4B1B689B0721D51B4B1A681B4B1B689A4213D0194B1B6801330A2B00D10023174AD25CD2B217490A60144A1360164B1B680F221340082BE6D104E094
:40114000134A136802218B4313600222114B1A6010BDC04694010020CC0F0740C4010020C801002040030740DC010020B401002008030740C00F07408C0F0740C00100203A
:40118000D8010020CC0100204002074008020740880F0740800F0740002243088B4274D303098B425FD3030A8B4244D3030B8B4228D3030C8B420DD3FF22090212BA030CA5
:4011C0008B4202D31212090265D0030B8B4219D300E0090AC30B8B4201D3CB03C01A5241830B8B4201D38B03C01A5241430B8B4201D34B03C01A5241030B8B4201D30B03F4
:40120000C01A5241C30A8B4201D3CB02C01A5241830A8B4201D38B02C01A5241430A8B4201D34B02C01A5241030A8B4201D30B02C01A5241CDD2C3098B4201D3CB01C01AEF
:40124000524183098B4201D38B01C01A524143098B4201D34B01C01A524103098B4201D30B01C01A5241C3088B4201D3CB00C01A524183088B4201D38B00C01A52414308D6
:401280008B4201D34B00C01A5241411A00D20146524110467047FFE701B5002000F006F802BDC0460029F7D076E770477047C04610B50A22002100F0C7F810BD014B186837
:4012C0007047C046480100200E4B70B500251E000D4CE41AA410A54204D0AB00F35898470135F8E700F068FA084B00251E00084CE41AA410A54204D0AB00F35898470135A3
:40130000F8E770BDC4170000C4170000C4170000CC17000003008218934202D019700133FAE77047F0B51E00454B87B01B680192029308220B00059003911C7802995D1C59
:4013400009194878104001D02B00F6E72D2C04D19D1C5C780123009304E000902B2C01D15C789D1C002E02D0102E0AD162E0302C5ED120222B789343582B54D110266C7863
:401380000235009F31007B1E9F412E4BFF183800FFF788FF380004913100FFF7FDFE00230322070094461800029A121951780422114201D0303C07E06246114017D03722D2
:4013C000012900D02032A41AA64210DD5A1C0BD0B84207D802D1049B9C4203DC70430123201801E001235B422C780135DCE75A1C0BD10098059A431E9841124BC01822232A
:401400001360019B002B0AD117E0009A002A00D04042019A002A10D0039A002B00D06A1E019B1A6009E03024002EAAD10826A8E70A26A6E7302C9CD0A3E707B0F0BDC04693
:401440004C010020FFFFFF7F10B513000A00010002480068FFF766FF10BDC0464801002000000000496E74726F64756365207468652076616C75657320666F7220746865D1
:401480002052474220636F6C6F7273207573696E672074686973207061747465726E3A20577272726767676262622E0A0D204578616D706C653A2057323535303930303367
:4014C000300A0D0000300F40000400400F400004800D810D820D060407010C01120813012407300232043301340836013F044020410545D14720482349FF4AFF4BFF4DA0C5
:401500004F04501852805405580459045A045B045F01604062C06440654066C068C06AC06CC06EC08A048F0194019807A701AE08B001B202B408B501B604BF10C020C1055C
:40154000C5D1C602C807C9FFCAFFCBFFCDA0CF04D018D280D405D804D904DA04DB04DF01E040E2C0E440E540E6C0E8C0EAC0ECC0EEC00044051009020E200F041020178071
:40158000184419401A101D301E601F60220427082F20300238043F8040044520482249014F855002574059415A085E405F0971027780C045C268C484CA40CC01CE12D02489
:4015C000D218D6DB0A040F011401180727012E08300132023408350136043F104020410545D14602480749FF4AFF4BFF4DA04F04501852805405580459045A045B045F0169
:40160000604062C06440654066C068C06AC06CC06EC005100E200F0817801D301E601FA027082F203F8045204F8957405E405F0977808780AF40B610C040C260C480CA4018
:40164000CE10D020D210D6D0EE1050405702D420D62063028701AF02B440D640E610EA100101100103000F404E300F4029310F4027320F401C330F4004400F4007410F4060
:4016800002600F40030405060708090A0B0C0E0F101112131415161718191B1C1D1E1F2021222325262728292A2B2E2F3031323334354300002020202020202020202828D6
:4016C0002828282020202020202020202020202020202020208810101010101010101010101010101004040404040404040404101010101010104141414141410101010198
:401700000101010101010101010101010101010110101010101042424242424202020202020202020202020202020202020202021010101020000000000000000000000025
:401740000000000000000000000000000000000000000000000000000000000000000000000000000000000000000000000000000000000000000000000000000000000069
:401780000000000000000000000000000000000000000000000000000000000000000000000000000000000000000000000000000000000000000000F8B5C046F8BC08BCFE
:4017C0009E4670470D020000B5050000F8B5C046F8BC08BC9E467047E5010000F0170000C00000209000000090000000000000000000000010000000000000FFFFFFFFFFC7
:40180000010000000000C05D80BB000030000000006CDC02040404000000000000000000000000000000000000000000000000000000000000000000B21600000000000001
:401840000000000000000000000000000000000000000000000000000000000000000000000000000000000000000000000000000000000000000000E8000020B416000096
:401880000000000000000000000000000000000000000000000000000000000000000000000000000000000000000000000000000000000000000000000000000000000028
:4018C00000000000000000000000000000000000000000000000000000000000000000000000000000000000000000000000000000000000000000000000000000000000E8
:4019000000000000000000000000000000000000000000000000000000000000000000000000000000000000000000000000000000000000000000000000000000000000A7
:401940000000000000000000000000000000000000000000000000000000000000000000000000000000000000000000000000000000000000000000000000000000000067
:0200000490303A
:02000000B874D2
:0200000490402A
:200000000000000000000000000000000000000000000000000000000000000000000000E0
:0200000490501A
:0C000000000204C81193110104CFCA07CC
:0200000490600A
:0100000001FE
:00000001FF