:400000000010002011000000CD020000CD02000010B500F063F9C04670B5144C23688025ED022B432360302001F0C8FE104A114B1A601022104B1A601032104B1A6080223E
:4000400012060F4B1A6025600E4A0F4B1A600F4A0F4B1A600F49092001F094FE092001F075FE00220C4B1A6070BDC04600010B400600008004010B400C0202403002024019
:4000800008010B409B00008000000240BF03008040000240C52000000C020B4010B572B600240FE02B486200131959000B00411889881A5AC31858880004104300F000F94F
:4000C0000134E4B2012CEDD922490C312248203000F0DCF8214A224B1A60C0229204214B1A60EE221202204B1A6099231B041F4A1360C52109041E4A11601E4A13608A215A
:40010000C9051D4A11601D4A13601D490B783C22934314221343DBB20B701A4A117816230B43DBB213702C22174B1A60174A184B1A602022174B1A602032174B1A60C02274
:400140005203164B1A60D8221201154B1A60FFF763FF10BDC8250000482700000033990000000140040001400C00014000500F4008500F4010500F4018500F4030500F40CD
:4001800001700F4000700F4000000440801D0300080004401800044000010440080104400803044010B5064C2378002B07D1054B002B02D0044800E000BF0123237010BDE2
:4001C0005001002000000000C4250000084B10B5002B03D00749084800E000BF07480368002B00D110BD064B002BFBD09847F9E70000000054010020C4250000C000002089
:400200000000000070B562B601F084FD002001F095FD02F00DF802F0F3F802F07DF8002001F0B8FF002002F09DF8002002F026F800F076FA012822D100F0FAFA00F0C2F987
:400240000100032001F062FD00F0BCF9060000F0BFF9050000F0C2F90400300001F09AFF280002F07FF8200002F008F8300000F0CDF9280000F0D0F9200000F0D3F900F013
:4002800059FA0028D4D000F0DBFAD1E7F0B50025002711E0BB00C658F3B2FF22964308E06A008A181478A419527822700135013BDBB2002BF4D10137072FEBD9F0BDC046DB
:4002C00010B50A00002102F075F910BD10B502F045F903680C2B00D1FEE7FEE770B50F4E0F4D13E029686B68AC68002202E001C901C30432A242FAD1E868002202E000217A
:4003000002C304328242FAD11035013E002EE9D102F02AF9FFF776FFFEE7C04601000000CC28000010B500230AE0032B03D89A000949505800E009489900094A88500133CF
:400340002F2BF2D9FFF7AAFE8022D205116801230B43136010BDC04600000000CD020000000000200200002006E0054B1B5CDBB2934204D00130C0B20128F6D9FF207047AB
:400380006C010020002802D001280AD013E00A4B19791C220A431A71597902220A435A7109E0054B1A79202149420A431A71597905220A435A7170476C0100200020704719
:4003C0000378DBB2FE2B05D00378DBB2FF2B03D1012202E0012200E0002243787F2B03D043787F2B00D000228378DBB2FE2B04D08378DBB2FF2B00D00022C378DBB2FF2B1D
:4004000004D0C378DBB2FF2B00D00022100070470C4BD9797F220A40DA711B7A5BB2002B0ADB084B5B899BB2002B07D0054BDB79DB0605D4002004E0002002E0002000E0C2
:40044000042070476C010020194BFF221A730022DA811A745B69002B01D000221A80082803D10522124B1A7614E0012803D103220F4B1A760EE00E4B1B7E032B0AD00C4B24
:400480001B7E062B06D00A4B1B7E052B02D00222074B1A76064B0022DA611A62187A7F2101401972D8795F210140D9715A6270476C010020174BFF212822995400225A816C
:4004C000293200219954102804D104212A23114AD15412E0012804D103212A230D4AD1540BE02A230B4AD35C032B06D02A23D35C042B02D002212A23D154064BD9792F22F1
:400500000A40DA71197A7F220A401A7200225A627047C0466C01002070B5284B2B241A5D04218A431A55DA798A43DA7110280DD11A002B23D15C273CA143D154D35C5B0623
:4005400004D5918D04230B439BB29385202819D11A4A2B21505C40230343DBB25354D3795B0705D5130028392A2299540022DA71124BDB791B071FD5104B03221A760022A4
:40058000DA7119E0012801D0102815D10B4C2B22A15C77230B40A35401F04CFF050001F00DFB01F029FB0422054B1A6000222E23E254280001F042FF70BDC0466C01002060
:4005C000C00F0740014B1878C0B27047C4000020014B5878C0B27047C4000020014B9878C0B27047C400002010B5040001F022FF054B1A7A7F218A431A721A7A0C4014437B
:400600001C7201F01BFF10BDC4000020014B58727047C046C4000020014B98727047C046C4000020014BD8727047C046C400002010B505280CD002D8032805D013E00628C2
:400640000AD007280CD00EE00800FFF7CDFF0AE00800FFF7DBFF06E00800FFF7DDFF02E00800FFF7DFFF10BD034B1B79DB0701D5012000E0002070476C010020034B1B79EF
:400680009B0701D5012000E0002070476C010020034B1B795B0701D4002000E0012070476C010020034B1B791B0701D4002000E0012070476C010020034B1B79DB0601D409
:4006C000002000E0012070476C010020034B1B799B0601D4002000E0012070476C010020034B1B795B0601D4002000E0012070476C010020044B1B795BB2002B01DB002044
:4007000000E001207047C0466C010020034B5B79DB0701D4002000E0012070476C010020034B5B799B0701D4002000E0012070476C010020034B5B795B0701D4002000E0D9
:40074000012070476C01002010B50A2824D88000124B1B589F46FFF787FF1EE0FFF78EFF1BE0FFF795FF18E0FFF79CFF15E0FFF7A3FF12E0FFF7AAFF0FE0FFF7B1FF0CE042
:40078000FFF7B8FF09E0FFF7C1FF06E0FFF7C8FF03E0FFF7CFFF00E0012010BD88270000024A137901218B43137170476C010020024A137902218B43137170476C01002005
:4007C000024A137904218B43137170476C010020024A137908218B43137170476C010020024A137910218B43137170476C010020024A137920218B43137170476C01002081
:40080000024A137940218B43137170476C010020024A13797F210B40137170476C010020024A537901218B43537170476C010020024A537902218B43537170476C0100203D
:40084000024A537904218B43537170476C01002010B50A2823D88000114B1B589F46FFF79FFF1CE0FFF7A4FF19E0FFF7A9FF16E0FFF7AEFF13E0FFF7B3FF10E0FFF7B8FFAE
:400880000DE0FFF7BDFF0AE0FFF7C2FF07E0FFF7C7FF04E0FFF7CCFF01E0FFF7D1FF10BDB42700000020704770B504000378002B07D1C04A918D08230B439BB293850020BD
:4008C000F5E11A007E3AD2B2012A0CD92F22B9498A5CD2B2934206D0012B00D0D1E18378B02B00D0CDE162780F231100994300D045E1A378B22B03D0B72B00D1B4E0F8E079
:400900000F231A40062A00D0FEE0201DFFF758FDE378002B1DD1012875D1A6492F33CB5CDBB234228B540A00343206235370EC3393700C33D3707E3010715371013393717D
:400940000023D371087A802252420243D2B20A7266E0012B29D1012857D1964BD96B002955D02F229A5CD2B233301A541B1805225A70ED329A70032308E0CA18033A157840
:400980008C4AD218342015540133DBB2062BF4D9884A13003433FF21D971117A80235B420B43DBB2137200233AE0032B31D01A00203AD2B21F2A2ED801282ED1E11C18002A
:4009C000FFF770FF02282AD17A4B2F229A5CD2B234215A545B1806225A70EC329A70032306E0E05C734AD218342150540133DBB2072BF6D96F4A117A80235B420B43DBB244
:400A0000137200230CE000230AE0012308E0012306E0012304E0012302E0012300E00123012B71D1634B2F229A5CD2B234215A54343303225A707C329A703332DA70A03A48
:400A40001A71052306E05B4AD218FF20342150540133DBB2072BF6D9564A117A80235B420B43DBB213724FE00F231A40062A4BD1002100231BE0E2789A18012A0FD8E0184D
:400A80000079FF2806D03F2505403B2D02D8494DA8540AE0FF2808D00131C9B205E0E2181279FF2A01D00131C9B20133DBB2032BE1D9002928D13F4B2F229A5CD2B2343117
:400AC0005A54343301225A70F6329A70032306E0384AD218FF20342150540133DBB2072BF6D9344A117A80235B420B43DBB213720AE0304AD17901230B43DBB2D371D1798C
:400B000002230B43DBB2D3712A4BDB79DB0704D4284BDB799B0700D4A2E06378062B25D8244B1B7E012B23D1224BDB79DB0702D5204B1A6ADA61002308E01E49CA69E018BD
:400B4000807810700132CA610133DBB262789342F3D3184B2278196C0A70627859690A800022DA8102321A76012002E0082000E00120104AD37903218B43D3717BE010296A
:400B80002FD1A378062B6DD90A48FF210173F0390A4012021343027E012A65D180229200934263D8C3814169C3899BB20B8003230AE0C0466C0100205149CA69E05C10707D
:400BC0000132CA610133DBB2072BF5D94C4AD389053B9BB2D3810023137410331373022049E0202944D1464B1B7B102B01D0202B40D10F231A40424B1B7C01330F210B40F9
:400C0000934228D13E4B1B7E012B0AD0002032E03B49CA69E05C10700132CA610133DBB200E00223072BF3D963780F221A40344B1A7420221A73DB899BB2062B06D9304A7A
:400C4000D389063B9BB2D381022014E000222C4BDA8101200FE00622294B1A7610200AE0082008E0082006E0082004E0082002E0082000E00820224B1B7A5BB2002B16DA48
:400C800012E01F4B197A7F220A401A72DB799B060CD51B4B03221A762A215A54DA790A398A43DA71002002E0012000E000204423134AD35C7E2B0BD0431EDBB2012B07D8A3
:400CC000D17980235B420B43DBB2D37100235362012813D10A4BDB899BB2002B0ED1084B00221A74FF321A73DB799B0606D5044BFD3A1A76DA7920218A43DA7170BDC046D0
:400D00006C01002010B504003023594AD35C012B35D0002B02D0022B65D0A7E0042812D004D8012809D0022815D09FE0102804D0802802D0082800D098E04D4AD1793F2366
:400D40000B40D37192E04A484430FFF7ADFD2000FFF7B0FB8AE0FFF7ADFB45484430FFF7A3FD012804D102213023414AD1547DE002287BD1012130233D4AD15476E00828CE
:400D800009D004D8012806D002280FD06EE0102801D080286AD12000FFF78CFB2000FFF753FB00213023324AD1545FE030484430FFF77AFD012804D1022130232C4AD1547F
:400DC00054E0022804D101213023294AD1544DE02000FFF76FFB2000FFF736FB00213023234AD15442E008280AD004D8012807D002281DD03AE0102802D0802808D035E0E1
:400E00002000FFF757FB00213023194AD1542DE0FFF7FEFA042829D02000FFF74BFB144B1B7A9B0622D400213023114AD1541DE0FFF740FB0E484430FFF736FD012804D134
:400E4000022130230A4AD15410E0022804D101213023074AD15409E02000FFF7F5FA2000FFF728FB00213023014AD15410BDC0466C01002070B5DA4B998D10220A4392B20B
:400E80009A850022DA6450215A5A012082435A52D44B1A6890235B001A420BD0D8229200D04B1A60CE492B22885C80235B420343DBB28B54CB4B1B681B0534D58022120144
:400EC000C84B1A602B23C64AD35C5B070FD5918D01230B439BB2938501F0ACFAC24A117A80235B420B43DBB2137201F0A7FA00F01FFEBE4B1888013880B2002100F020FEED
:400F000000F00CFEB64C2B22A15C7B230B40A35400222E23E2540120FFF7FEFA01225223E25200F058FCAF4B1B685B0558D58022D200AC4B1A60AA4A00215223D152AC4B30
:400F40001B681B051B0D54315352535A9BB2802B37D05423D35A802B0AD55423D25A2C339A1AD00F0023423991424341DBB209E054239B4AD25A803AD00F00231221914258
:400F80004341DBB2002B17D0984B1A88944C5423E35A5343DA0940210B40591E8B419B18A36500F0C5FDA06D013880B2002100F0C7FD00F0B3FD04E00120FFF7ADFA00F0A1
:400FC0000AFC874A01212E23D1542A31505C08230343DBB2535400F0F1FD864A814B1A60804B1B685B0701D400F0F5FB2E237C4AD35CDBB2042B01D900F0E7FB9B007E4A6C
:40100000D3589F4600F0DAFD0422764B1A600120FFF782FA00F0DCFB2B23714AD35C5BB2002B03DA1020FFF777FAD1E300F0C0FDC0B26B4B5C22985400225D215A540131C7
:401040005A526032002199543F2303406B4AD35C984203D01020FFF75FFAB9E33C2802D07D2800D072E13C280ED15D4BD97908220A43D2B2DA716122082199541A00443229
:401080005A6605392E2299547D2800D0A0E3544B1B7A5BB2002B1FDA514C08226123E2542300343363663423E05CC0B23433E05423003533636600F091FD01225D23E25479
:4010C00001322F3BE2542B21625C2A3B1A436254E2791343E3717BE3414BDB79DB0600D430E130233E4AD35C022B00D02AE153899BB2002B07D1D37910218B43D3710120A4
:40110000FFF70AFA64E3364B5B899BB2062B00D876E02823324AD35CFF2B34D11300102028229854DA7940211143D97100225A622F32995CC9B2053299545A89120A024356
:40114000190034314A705B89DBB28B7003230DE023496A228A5AD218C86E84466244033A1078C918342288540133DBB2072BEFD91B4A6A21535A05339BB253525389053BD6
:401180009BB2538196E0164B2922995C093A0A4334335A7002230DE011496A228A5AD218C86E84466244023A1078C918342288540133DBB2072BEFD9094B6A215A5A06326D
:4011C00092B25A524A39282299545A89063A92B25A81D97940220A43DA7100225A6269E06C010020C00F0740C4000020300200204C000740ED0F0000E02700001C280000DD
:40120000CE4BD97940220A43DA7100225A6228329B5CFF2B0FD1C94B07329A5CD2B234215A545A89D2B2190034314A7000212822995402232AE0C14B2F229A5CD2B23421F4
:401240005A5429229A5C14390A4318003430427028229954EDE7591EC9B2B84A528992B291420CD8B5496A228A5AD218C86E84466244023A1078C9183422885404E0AF4A30
:40128000D218FF20342150540133DBB2072BE2D9AA4A6A21535A06339BB2535253899BB2062B04D95389063B9BB2538102E00022A24B5A812923A14AD35C0F2B06D011005F
:4012C00029228B5C0133DBB28B5403E0002129239A4AD154994C08226123E2542500343565662D3BE05CC0B23433E05423003533636600F073FC01225D23E25401322F3BC7
:40130000E2542B21625C2A3B1A436254E2791343E3716B78032B0FD1884B34339B787F2B0AD1864B34331B79782B05D1834A117A583B0B4313724BE2804A137A20218B4397
:40134000137245E20120FFF7E7F841E2FFF70AF804007023794AD054FF285DD01100143BD25C0233CA5243001B189B00744AD31840229A5C0F23134061200B54D30640D59A
:401380002025154008D02000FFF718F8002803D10130FFF7C1F81EE263001B199B00684AD3185A6C654B5A66107868215854002D0CD0634963001B199B00CB1848331B781F
:4013C000DBB2C85C68235D49C85406E05B482B21445C04232343DBB24354584C013262666823E05C00F0FAFB01225D23E25401322F3BE2542932A15C04230B43DBB2A35481
:40140000E6E14E4B00215D2299541A0074325A6603312E229954DBE10120FFF77DF8D7E1464A117A10230B43DBB213726823D45C00F0BEFBFF231840844205D1D43B3F4A0E
:40144000D35C5BB2002B31DA70233C4AD35C5A00D3189B003A4AD31840229B5C9B0610D4364A918D01230B439BB2938500F0E2FF344A117A80235B420B43DBB2137200F0A6
:40148000DDFF2B232D4AD35C5BB2002B0ADB1300918DFF220A409A855C229A5C1202998D0A439A851020FFF737F891E1234A6823D05C5E21535AC3189BB25352FF2B03D980
:4014C000FF3B5E221D498B521C4B61229A5C5D215B5C9A420ED9194C636E1878C0B26822A0540133636600F079FB5D22A35C0133A3546DE1114C5E23E05CC043C0B200F08A
:401500006DFB00225D23E25404322F3BE2545FE12B230A4AD35C5BB2002B35DA5D23D35C002B11D16033D35C002B0DD100F040FB01216023014AD1541FE0C0466C010020E4
:401540001C280000C4000020A34CA28D012313439BB2A38500F06EFFA04A117A80235B420B43DBB2137200F069FF2B22A35C04218B43A3541020FEF7CFFF97492B22885C32
:401580007F2303408B5423E100F012FBC0B2924B682298545A6E107001325A665D215A5C0132D2B25A541C7A10212143C9B219722B241D5D04212943C9B219555E215C5A24
:4015C000201880B25852FF2803D9FF385E238249C85261238049CB5C9A4200D2F8E00B0000215D22995404312F3A9954F0E05E23794AD45CE443E4B200F0DAFAFF231840DB
:40160000844205D1D43B744AD35C5BB2002B24DA714CA28D012313439BB2A38500F00AFF6E4A117A80235B420B43DBB2137200F005FF2B23E35C5BB2002B0ADB664B998DB0
:40164000FF220A409A855C229A5C1202998D0A439A851020FEF760FFBAE05F4A2B21505C7B2303405354908D022303439BB29385908DFF23034093855C23D35C1B02908D10
:4016800003439385535C5B0604D5918D04230B439BB29385504A2B21505C40230343DBB253547023D35C012B08D100F0C3FE4B4A117A7F230B40137200F0C0FE5C23464AB5
:4016C000D35C3C2B14D07D2B12D07023D35C5A00D3189B00424AD31840229B5C9B0602D50120FEF719FF70233B4AD05CFEF74AFE5C23394AD35C3C2B33D10833D35C2F21F7
:40170000525CD2B2934205D07F2B05D0012B05D1012204E0012202E0012200E00022D2B2002B06D12C4A918D08230B439BB293850EE0002A03D00220FFF7E4FA08E07E2BB1
:4017400003D10420FFF7DEFA02E00120FFF7DAFA214AD37908218B43D3710120FEF7DCFE36E07D2B06D18020FFF7CCFA0120FEF7D3FE2DE07023184AD35C5A00D3189B000B
:40178000174AD31840229B5CDB061AD400F052FE00210FE0104A7023D35C5C00E3189B000F4CE3185B6C5B1852187424125D1A700131C9B26123084AD35C9942EAD300F092
:4017C0003DFE0120FEF7A8FE02E00120FEF7A4FE0422044B1A6070BD6C010020C40000201C280000C00F074010B51A4BDB795B060BD5184B5A6A01325A625A6A164B9A429B
:4018000017D91020FFF77EFA13E0124BDB795BB2002B0BDA0F4B5A6A01325A625A6A0E4B9A4206D90820FFF76DFA02E00022094B5A62084BDB6C094A934207D90549502279
:40184000885A012303439BB28B5202E00133014AD36410BD6C010020E7030000571B000070B5174B1B68002B0FD100F0B7FB1549002000F0C3FB002520E0200000F0C6FBCB
:40188000104B984206D0013400E00024042CF4D9112500E00025002D0DD10FE0200000F0B5FB002805D10749200000F0A7FB002504E0013400E00024042CEFD9280070BD63
:4018C00008020020E917000010B500F0B3FD040000F02EF9214B1888013880B2002100F02FF900F01BF900F043F91D4B1A68A02109030A431A601A68802149010A431A60AC
:40190000184A136818490B431360002307E0174A5832D2185178164AD1540133DBB2012BF5D9134B01212F2299549A8D00229A85DA644F315A5200F01FF9200000F07EFD9D
:40194000FFF78EFF002801D1002400E0012400F0DDF8084800F0CCF8200010BD3002002048000740C80F0740040C00001C2800006C0100209D1A000070B50C00092872D8C8
:4019800080003E4B1B589F4650233D4AD05A80B272E000F04FFD050000F0CAF82088013880B2002100F0CCF82288364B1A8000F0B5F8280000F042FD00205DE000F0E8F85D
:4019C000314B1A688024640222431A6018682F4A104018602E4B19682143196019680A401A6000F07DF800F091F82A4A2A4B1A60002041E0FFF768FF00203DE05423204A26
:401A0000D35A0B80002037E01D4BD963002033E02F231B4AD35C0B7000202DE00A7813007E3BDBB2012B20D9002A20D02F231449CA54002020E00B78012B04D8104AD35C37
:401A40004B70002018E0FF234B70012014E00B78012B0ED849783F220A403B2A0BD8084AD154002008E0012006E0012004E0012002E0012000E0012070BDC046F42700005A
:401A80006C0100203002002004020740FFFFFEFF04030740ED0F0000C00F074010B5FFF7E9F910BD014BD8667047C0460000002010B5040000F0BEFC044A13689B009B0854
:401AC000A4071C43146000F0B9FC10BD08E400E080221201014B1A607047C04600E100E080221201014B1A607047C04680E100E010B50400FFF7F4FF2000FFF7D3FF0320FB
:401B0000FFF7D6FFFFF7E4FF10BDC04680221201014B1A607047C04680E200E0034A1368802109060B4313607047C04600000240024A13685B005B0813607047000002408B
:401B4000034A13681B0C1B04034313607047C04600000240014B186880B270470000024010B500F0A7F810BD10B500F0B9F810BD10B500F051F810BD10B5044A136880215A
:401B800009060B431360FFF7EBFF10BD0000074010B5FFF7E9FF044A13685B005B0813600022024B1A6010BD00000740880F0740014B18687047C04640030740054B1A6804
:401BC000802149020A431A601968034A0A401A607047C04604030740FFFFFEFF044B1B680F221340082BF9D0024B18607047C0460802074040020740054B1A68802149022E
:401C00000A431A601968034A0A401A607047C04604020740FFFFFEFF134A144B1A600023134A13601349144A1160144A14490A6007201449086014490B6005381349086018
:401C400013490A60134A1360134A1360134A1360134A1360134A1360134A1360134A13601268134B1A8070470F000002000007404000074002000A004800074007000080C4
:401C8000000307400403074010030740440007400002074004020740880E0740C80E0740480F0740080F0740C80F0740880F0740F0010020064A1168064B0B4090210904EB
:401CC0000B431360044B1A88044B1A607047C04600000140FFFF0FFFF0010020880F0740064A1168064B0B401360064B1A68E423DB001340044A13807047C04600000140B1
:401D0000FFFF0FFF880F0740F001002010B5FEF78FFC10BD10B5074B1B78002B07D1FFF719FF0130044B18800122024B1A70002010BDC046F20100203002002010B5002884
:401D400002D1FFF7C1FD00E0012010BD1F2318401E3B8340014A13607047C04600E100E001BE704770B504000D000F2802D90020FFF7F6FFA40080239B059C46644420685A
:401D8000256070BD70B504000D001F2802D90020FFF7E6FF1034A40080239B059C4664442068256070BDC04610B5034B1B7B584300F036FB10BDC046D4000020F0B55746BB
:401DC0004E46C0B483B0040000F034FB0190E71E2D2F74D83F4B1B78DBB29C4208D83E4B1B78DBB29A463D4B1B78DBB2994631E03B4B1B78DBB29C4208D83A4B1B78DBB2B5
:401E00009A46394B1B78DBB2994623E0374B1B78DBB29C4208D8364B1B78DBB29A46354B1B78DBB2994615E0334B1B78DBB29C4208D8324B1B78DBB29A46314B1B78DBB272
:401E4000994607E02F4B1B78DBB29A462E4B1B78DBB299462D4BDE5D2F2E09D92A2C07D919222B4B1A60052000F0DAFA192503E0274B1D683F231D40B54206D9234BDA5D1C
:401E8000234B1A60052000F0CBFA1F4B9C4664442378DBB21F4A13601F4B52461A601F4B4A461A600520FFF77FFFB5420AD2174BDA5D174B1A60052000F0B2FA02E00020D4
:401EC000FFF74EFF019800F0B9FA03B00CBC91469A46F0BDC0F1FF0FC1F1FF0FC2F1FF0FC3F1FF0FC4F1FF0FC5F1FF0FC6F1FF0FC7F1FF0FC8F1FF0FC9F1FF0FCAF1FF0F18
:401F0000CBF1FF0FCCF1FF0FCDF1FF0F782800002CFF0B4028FF0B401CFF0B4020FF0B40024A116802230B431360704710E000E010B5FFF7F5FF034A116801230B4313605C
:401F400010BDC04610E000E00002000A014B18607047C04614E000E0024B1868000C01231840704710E000E010B5FFF7F5FF01280BD107E0A300054A9B58002B00D0984727
:401F8000013400E00024042CF4D910BDF40100200022014B1A60704718E000E010B5002304E0990000200A4A88500133042BF8D908490F20FFF7D6FE074B1869FA218900EC
:401FC00000F040FAFFF7C0FFFFF7E2FF10BDC046F4010020691F0000D400002010B5064B5B69002B04D1FFF7D9FF0122024B5A61FFF79EFF10BDC046F4010020024A8300AA
:40200000985899507047C046F40100208000014BC0587047F4010020034B1868C0231B02184000D00120704700010B4010B500F001FA044A1368C02109020B43136000F015
:40204000FDF910BD00010B4010B500F0F3F908490A68084B1A408024E40122430A600A6813408022120213430B6000F0E7F910BD00010B40FF3FFFFF70B5050000F0DAF99A
:402080000400FFF7C9FF002803D0FFF7DDFF012100E0002108482840084A1568084B2B40184310601368012901D1FFF7BFFF200000F0C4F970BDC0460404040010020B40CA
:4020C000FBFBFBFF10B5244B1B685B0715D5234B1B685B070ED5224BD969042001401F4C22688A432260DA698243DA611B69002B00D098470420FFF7BFFF174B1B685B05A1
:4021000018D5164B1B685B0510D5154BD9698022D2001140114802688A430260D969114A0A40DA615B69002B00D098478020C000FFF7A2FF084B1B685B030CD5074B1B688F
:402140005B0304D5064B9B69002B00D098478020C002FFF791FF10BD10020B40E80000200C020020FFFBFFFF034A117880235B420B43DBB21370704772000F40014B1870F9
:402180007047C04602000F40014B18707047C04642000F40014B18707047C04622000F40014B18707047C04682000F40014B1878C0B2704762000F40014B1878C0B27047D0
:4021C00052000F4010B501E0FFF7F6FFFFF7EEFFC306F9D410BDC04610B513490B783F2293430C221343DBB20B70104C227801231343DBB22370FF20FFF7C0FFFF20FFF781
:40220000C3FF7F20FFF7C6FF0020FFF7C9FF00F011F9227810231343DBB2237000F00EF9FFF7D0FF10BDC04672000F4092000F4010B5064B1B78002B04D1FFF7CDFF0122A8
:40224000024B1A70FFF790FF10BDC0462C020020034A117880235B420B43DBB21370704771000F40014B18707047C04601000F40014B18707047C04641000F40014B187020
:402280007047C04621000F40014B18707047C04681000F40014B1878C0B2704761000F40014B1878C0B2704751000F4010B501E0FFF7F6FFFFF7EEFFC306F9D410BDC04659
:4022C00010B513490B783F2293430C221343DBB20B70104C227801231343DBB22370FF20FFF7C0FFFF20FFF7C3FF7F20FFF7C6FF0020FFF7C9FF00F09DF82278102313435C
:40230000DBB2237000F09AF8FFF7D0FF10BDC04671000F4091000F4010B5064B1B78002B04D1FFF7CDFF0122024B1A70FFF790FF10BDC0462D020020034A117880235B42A1
:402340000B43DBB21370704770000F40014B18707047C04600000F40014B18707047C04640000F40014B18707047C04620000F40014B18707047C04680000F40014B18784D
:40238000C0B2704760000F40014B1878C0B2704750000F4010B501E0FFF7F6FFFFF7EEFFC306F9D410BDC04610B513490B783F2293430C221343DBB20B70104C2278012343
:4023C0001343DBB22370FF20FFF7C0FFFF20FFF7C3FF7F20FFF7C6FF0020FFF7C9FF00F029F8227810231343DBB2237000F026F8FFF7D0FF10BDC04670000F4090000F40EC
:4024000010B5064B1B78002B04D1FFF7CDFF0122024B1A70FFF790FF10BDC0462E0200200230800804D0C0460138FDD1C046C046C0467047EFF3108072B6704780F31088CF
:402440007047C046002243088B4274D303098B425FD3030A8B4244D3030B8B4228D3030C8B420DD3FF22090212BA030C8B4202D31212090265D0030B8B4219D300E0090AC9
:40248000C30B8B4201D3CB03C01A5241830B8B4201D38B03C01A5241430B8B4201D34B03C01A5241030B8B4201D30B03C01A5241C30A8B4201D3CB02C01A5241830A8B4272
:4024C00001D38B02C01A5241430A8B4201D34B02C01A5241030A8B4201D30B02C01A5241CDD2C3098B4201D3CB01C01A524183098B4201D38B01C01A524143098B4201D3E6
:402500004B01C01A524103098B4201D30B01C01A5241C3088B4201D3CB00C01A524183088B4201D38B00C01A524143088B4201D34B00C01A5241411A00D2014652411046F3
:402540007047FFE701B5002000F006F802BDC0460029F7D076E770477047C046014B18687047C0464C0100200E4B70B500251E000D4CE41AA410A54204D0AB00F358984722
:402580000135F8E700F090F9084B00251E00084CE41AA410A54204D0AB00F35898470135F8E770BDB4280000B4280000B4280000BC28000003008218934202D019700133A6
:4025C000FAE770470000000000300F40000400400F400004800D810D820D060407010C01120813012407300232043301340836013F044020410545D14720482349FF4AFF9A
:402600004BFF4DA04F04501852805405580459045A045B045F01604062C06440654066C068C06AC06CC06EC08A048F0194019807A701AE08B001B202B408B501B604BF10BA
:40264000C020C105C5D1C602C807C9FFCAFFCBFFCDA0CF04D018D280D405D804D904DA04DB04DF01E040E2C0E440E540E6C0E8C0EAC0ECC0EEC00044051009020E200F0481
:4026800010201780184419401A101D301E601F60220427082F20300238043F8040044520482249014F855002574059415A085E405F0971027780C045C268C484CA40CC0185
:4026C000CE12D024D218D6DB0A040F011401180727012E08300132023408350136043F104020410545D14602480749FF4AFF4BFF4DA04F04501852805405580459045A0443
:402700005B045F01604062C06440654066C068C06AC06CC06EC005100E200F0817801D301E601FA027082F203F8045204F8957405E405F0977808780AF40B610C040C26096
:40274000C480CA40CE10D020D210D6D0EE1050405702D420D62063028701AF02B440D640E610EA100101100103000F404E300F4029310F4027320F401C330F4004400F4098
:4027800007410F4002600F40560700005C07000062070000680700006E070000740700007A07000080070000860700008C070000920700005E080000640800006A08000044
:4027C00070080000760800007C08000082080000880800008E080000940800009A08000004100000181000002014000010150000EE1500008819000092190000BC190000B8
:40280000F4190000FC190000081A0000101A00001C1A0000361A00004E1A000080C14203C48506470849CA8B4C0D8ECF501192D31455D697D8991A5B9CDD5E1F2061E2A346
:402840006425A6E7A8E96A2BECAD2E6FF0B13273B4F576377839BAFB3C7DFEBF08000000C40000200000000018000000CC0000200000000001501100030405060708090AE8
:402880000B0C0E0F101112131415161718191B1C1D1E1F2021222325262728292A2B2E2F3031323334354300F8B5C046F8BC08BC9E467047CD01000025030000F8B5C046AA
:4028C000F8BC08BC9E467047A5010000E0280000C000002090000000E80000000000000000000000000000FFFFFFFFFF00000000FFFFFFFF010000000000C05D80BB00006F
:4029000030000000006CDC02040404000000000000000000000000000000000000000000000000000000000000000000A62800000000000000000000000000000000000043
:402940000000000000000000000000000000000000000000000000000000000000000000000000000000000000000000EC000020000000000000000000000000000000004B
:402980000000000000000000000000000000000000000000000000000000000000000000000000000000000000000000000000000000000000000000000000000000000017
:4029C00000000000000000000000000000000000000000000000000000000000000000000000000000000000000000000000000000000000000000000000000000000000D7
:402A00000000000000000000000000000000000000000000000000000000000000000000000000000000000000000000000000000000000000000000000000000000000096
:402A40000000000000000000000000000000000000000000000000000000000000000000000000000000000000000000000000000000000000000000000000000000000056
:0200000490303A
:0200000085BBBE
:0200000490402A
:200000000000000000000000000000000000000000000000000000000000000000000000E0
:0200000490501A
:0C000000000204C81193110104D6974EB1
:0200000490600A
:0100000001FE
:00000001FF