:4000000000100020110000001D0300001D03000010B500F08BF9C04670B5144C23688025ED022B432360302001F06CFF104A114B1A601022104B1A601032104B1A608022CF
:4000400012060F4B1A6025600E4A0F4B1A600F4A0F4B1A600F49092001F038FF092001F019FF00220C4B1A6070BDC04600010B400600008004010B400C02024030020240CF
:4000800008010B409B00008000000240BF030080400002400D2200000C020B4010B572B600240FE02B486200131959000B00411889881A5AC31858880004104300F028F9DD
:4000C0000134E4B2012CEDD922490C312248203000F004F9214A224B1A60C0229204214B1A60EE221202204B1A6099231B041F4A1360C52109041E4A11601E4A13608A2131
:40010000C9051D4A11601D4A13601D490B783C22934314221343DBB20B701A4A117816230B43DBB213702C22174B1A60174A184B1A602022174B1A602032174B1A60C02274
:400140005203164B1A60D8221201154B1A60FFF763FF10BD10270000902800000033990000000140040001400C00014000500F4008500F4010500F4018500F4030500F403A
:4001800001700F4000700F4000000440801D0300080004401800044000010440080104400803044010B5064C2378002B07D1054B002B02D0044800E000BF0123237010BDE2
:4001C00058010020000000000C270000084B10B5002B03D00749084800E000BF07480368002B00D110BD064B002BFBD09847F9E7000000005C0100200C270000C0000020E5
:400200000000000070B562B601F028FE002001F039FE02F0B1F802F097F902F021F9002002F05CF8002002F041F9002002F0CAF800F0E4FA012822D100F08CFB00F0F6F933
:400240000100052001F006FE00F0F0F9060000F0F3F9050000F0F6F90400300002F03EF8280002F023F9200002F0ACF8300000F027FA280000F02AFA200000F02DFA00F0D8
:40028000C7FA012822D100F06DFB00F0E1F901000400052001F0DEFD00F0E0F90500002C05D102F01BF8280000F00AFA0EE0012C05D102F0FBF8280000F008FA06E0102C46
:4002C00004D102F07FF8280000F006FA00F0AAFA0028ADD000F04EFBAAE7C046F0B50025002711E0BB00C658F3B2FF22964308E06A008A181478A419527822700135013B3A
:40030000DBB2002BF4D10137072FEBD9F0BDC04610B50A00002102F0F1F910BD10B502F0C1F903680C2B00D1FEE7FEE770B50F4E0F4D13E029686B68AC68002202E001C9FD
:4003400001C30432A242FAD1E868002202E0002102C304328242FAD11035013E002EE9D102F0A6F9FFF74EFFFEE7C046010000004C2A000010B500230AE0032B03D89A00BE
:400380000949505800E009489900094A885001332F2BF2D9FFF782FE8022D205116801230B43136010BDC046000000001D030000000000200200002006E0054B1B5CDBB239
:4003C000934204D00130C0B20228F6D9FF2070477401002001280ED0002802D0022814D01DE00F4B19791C220A431A71597908220A435A7113E00A4B197960220A431A71F7
:40040000597910220A435A7109E0054B1A79802149420A431A71597927220A435A71704774010020002070470378DBB2FE2B05D00378DBB2FF2B03D1012202E0012200E066
:40044000002243787F2B03D043787F2B00D000228378DBB2FE2B04D08378DBB2FF2B00D00022C378DBB2FF2B04D0C378DBB2FF2B00D00022100070470C4B197A7F220A405C
:400480001A725B7A5BB2002B0ADB084B5B899BB2002B07D0054B1B7ADB0605D4002004E0002002E0002000E00420704774010020194BFF221A730022DA811A745B69002B17
:4004C00001D000221A80082803D10522124B1A7614E0012803D103220F4B1A760EE00E4B1B7E032B0AD00C4B1B7E062B06D00A4B1B7E052B02D00222074B1A76064B00220F
:40050000DA611A62587A7F2101405972187A5F21014019725A62704774010020174BFF212822995400225A81293200219954102804D104212A23114AD15412E0012804D192
:4005400003212A230D4AD1540BE02A230B4AD35C032B06D02A23D35C042B02D002212A23D154064B197A2F220A401A72597A7F220A405A7200225A627047C04674010020F7
:4005800070B5284B2B241A5D04218A431A551A7A8A431A7210280DD11A002B23D15C273CA143D154D35C5B0604D5918D04230B439BB29385202819D11A4A2B21505C402326
:4005C0000343DBB25354137A5B0705D5130028392A22995400221A72124B1B7A1B071FD5104B03221A7600221A7219E0012801D0102815D10B4C2B22A15C77230B40A35409
:4006000001F0BCFF050001F07DFB01F099FB0422054B1A6000222E23E254280001F0B2FF70BDC04674010020C00F0740014B1878C0B27047C4000020014B5878C0B27047AC
:40064000C4000020014B9878C0B27047C4000020014B187AC0B27047C4000020014B587AC0B27047C400002010B5042812D88000094B1B589F46FFF7D9FF0CE0FFF7DCFF85
:4006800009E0FFF7DFFF06E0FFF7E2FF03E0FFF7E5FF00E0FF2010BDD028000010B5040001F06CFF054B1A7C7F218A431A741A7C0C4014431C7401F065FF10BDC40000206A
:4006C000014B58747047C046C4000020014B98747047C046C4000020014BD8747047C046C400002010B507280CD002D8052805D013E008280AD009280CD00EE00800FFF76D
:40070000CDFF0AE00800FFF7DBFF06E00800FFF7DDFF02E00800FFF7DFFF10BD034B1B79DB0701D5012000E00020704774010020034B1B799B0701D5012000E000207047A7
:4007400074010020034B1B795B0701D4002000E00120704774010020034B1B791B0701D4002000E00120704774010020034B1B79DB0601D4002000E0012070477401002013
:40078000034B1B799B0601D4002000E00120704774010020034B1B795B0601D4002000E00120704774010020044B1B795BB2002B01DB002000E001207047C0467401002085
:4007C000034B5B79DB0701D4002000E00120704774010020034B5B799B0701D4002000E00120704774010020034B5B795B0701D4002000E00120704774010020034B5B79C5
:400800001B0701D4002000E00120704774010020034B5B79DB0601D4002000E00120704774010020034B5B799B0601D4002000E0012070477401002010B50D282DD880008B
:40084000174B1B589F46FFF769FF27E0FFF770FF24E0FFF777FF21E0FFF77EFF1EE0FFF785FF1BE0FFF78CFF18E0FFF793FF15E0FFF79AFF12E0FFF7A3FF0FE0FFF7AAFF00
:400880000CE0FFF7B1FF09E0FFF7B8FF06E0FFF7BFFF03E0FFF7C6FF00E0012010BDC046E4280000024A137901218B431371704774010020024A137902218B43137170475C
:4008C00074010020024A137904218B431371704774010020024A137908218B431371704774010020024A137910218B431371704774010020024A137920218B431371704760
:4009000074010020024A137940218B431371704774010020024A13797F210B401371704774010020024A537901218B435371704774010020024A537902218B43537170471C
:4009400074010020024A537904218B435371704774010020024A537908218B435371704774010020024A537910218B435371704774010020024A537920218B4353717047DF
:400980007401002010B50D282CD88000164B1B589F46FFF787FF25E0FFF78CFF22E0FFF791FF1FE0FFF796FF1CE0FFF79BFF19E0FFF7A0FF16E0FFF7A5FF13E0FFF7AAFF1B
:4009C00010E0FFF7AFFF0DE0FFF7B4FF0AE0FFF7B9FF07E0FFF7BEFF04E0FFF7C3FF01E0FFF7C8FF10BDC0461C2900000020704770B504000378002B07D1C04A918D082378
:400A00000B439BB293850020F5E11A007E3AD2B2012A0CD92F22B9498A5CD2B2934206D0012B00D0D1E18378B02B00D0CDE162780F231100994300D045E1A378B22B03D083
:400A4000B72B00D1B4E0F8E00F231A40062A00D0FEE0201DFFF7E8FCE378002B1DD1012875D1A6492F33CB5CDBB234228B540A00343206235370EC3393700C33D3707E300B
:400A800010715371013393710023D371487A802252420243D2B24A7266E0012B29D1012857D1964BD96B002955D02F229A5CD2B233301A541B1805225A70ED329A70032396
:400AC00008E0CA18033A15788C4AD218342015540133DBB2062BF4D9884A13003433FF21D971517A80235B420B43DBB2537200233AE0032B31D01A00203AD2B21F2A2ED812
:400B000001282ED1E11C1800FFF770FF02282AD17A4B2F229A5CD2B234215A545B1806225A70EC329A70032306E0E05C734AD218342150540133DBB2072BF6D96F4A517AA0
:400B400080235B420B43DBB2537200230CE000230AE0012308E0012306E0012304E0012302E0012300E00123012B71D1634B2F229A5CD2B234215A54343303225A707C323F
:400B80009A703332DA70A03A1A71052306E05B4AD218FF20342150540133DBB2072BF6D9564A517A80235B420B43DBB253724FE00F231A40062A4BD1002100231BE0E278B5
:400BC0009A18022A0FD8E0180079FF2806D03F2505403B2D02D8494DA8540AE0FF2808D00131C9B205E0E2181279FF2A01D00131C9B20133DBB2032BE1D9002928D13F4B49
:400C00002F229A5CD2B234315A54343301225A70F6329A70032306E0384AD218FF20342150540133DBB2072BF6D9344A517A80235B420B43DBB253720AE0304A117A0123C2
:400C40000B43DBB21372117A02230B43DBB213722A4B1B7ADB0704D4284B1B7A9B0700D4A2E06378062B25D8244B1B7E012B23D1224B1B7ADB0702D5204B1A6ADA61002307
:400C800008E01E49CA69E018807810700132CA610133DBB262789342F3D3184B2278196C0A70627859690A800022DA8102321A76012002E0082000E00120104A137A032114
:400CC0008B4313727BE010292FD1A378062B6DD90A48FF210173F0390A4012021343027E012A65D180229200934263D8C3814169C3899BB20B8003230AE0C04674010020D6
:400D00005149CA69E05C10700132CA610133DBB2072BF5D94C4AD389053B9BB2D3810023137410331373022049E0202944D1464B1B7B102B01D0202B40D10F231A40424B74
:400D40001B7C01330F210B40934228D13E4B1B7E012B0AD0002032E03B49CA69E05C10700132CA610133DBB200E00223072BF3D963780F221A40344B1A7420221A73DB89CA
:400D80009BB2062B06D9304AD389063B9BB2D381022014E000222C4BDA8101200FE00622294B1A7610200AE0082008E0082006E0082004E0082002E0082000E00820224BED
:400DC0005B7A5BB2002B16DA12E01F4B597A7F220A405A721B7A9B060CD51B4B03221A762A215A541A7A0A398A431A72002002E0012000E000204423134AD35C7E2B0BD01B
:400E0000431EDBB2012B07D8117A80235B420B43DBB2137200235362012813D10A4BDB899BB2002B0ED1084B00221A74FF321A731B7A9B0606D5044BFD3A1A761A7A2021DC
:400E40008A431A7270BDC0467401002010B504003023594AD35C012B35D0002B02D0022B65D0A7E0042812D004D8012809D0022815D09FE0102804D0802802D0082800D04C
:400E800098E04D4A117A3F230B40137292E04A484430FFF7ADFD2000FFF740FB8AE0FFF73DFB45484430FFF7A3FD012804D102213023414AD1547DE002287BD10121302362
:400EC0003D4AD15476E0082809D004D8012806D002280FD06EE0102801D080286AD12000FFF71CFB2000FFF7E3FA00213023324AD1545FE030484430FFF77AFD012804D1FE
:400F0000022130232C4AD15454E0022804D101213023294AD1544DE02000FFF7FFFA2000FFF7C6FA00213023234AD15442E008280AD004D8012807D002281DD03AE01028D7
:400F400002D0802808D035E02000FFF7E7FA00213023194AD1542DE0FFF78EFA042829D02000FFF7DBFA144B5B7A9B0622D400213023114AD1541DE0FFF7D0FA0E48443036
:400F8000FFF736FD012804D1022130230A4AD15410E0022804D101213023074AD15409E02000FFF785FA2000FFF7B8FA00213023014AD15410BDC0467401002070B5DA4B65
:400FC000998D10220A4392B29A850022DA6450215A5A012082435A52D44B1A6890235B001A420BD0D8229200D04B1A60CE492B22885C80235B420343DBB28B54CB4B1B68F8
:401000001B0534D580221201C84B1A602B23C64AD35C5B070FD5918D01230B439BB2938501F0ACFAC24A117C80235B420B43DBB2137401F0A7FA00F01FFEBE4B188801382A
:4010400080B2002100F020FE00F00CFEB64C2B22A15C7B230B40A35400222E23E2540120FFF78EFA01225223E25200F058FCAF4B1B685B0558D58022D200AC4B1A60AA4AAE
:4010800000215223D152AC4B1B681B051B0D54315352535A9BB2802B37D05423D35A802B0AD55423D25A2C339A1AD00F0023423991424341DBB209E054239B4AD25A803A6F
:4010C000D00F0023122191424341DBB2002B17D0984B1A88944C5423E35A5343DA0940210B40591E8B419B18A36500F0C5FDA06D013880B2002100F0C7FD00F0B3FD04E006
:401100000120FFF73DFA00F00AFC874A01212E23D1542A31505C08230343DBB2535400F0F1FD864A814B1A60804B1B685B0701D400F0F5FB2E237C4AD35CDBB2042B01D921
:4011400000F0E7FB9B007E4AD3589F4600F0DAFD0422764B1A600120FFF712FA00F0DCFB2B23714AD35C5BB2002B03DA1020FFF707FAD1E300F0C0FDC0B26B4B5C229854B1
:4011800000225D215A5401315A526032002199543F2303406B4AD35C984203D01020FFF7EFF9B9E33C2802D07D2800D072E13C280ED15D4B197A08220A43D2B21A726122FD
:4011C000082199541A0044325A6605392E2299547D2800D0A0E3544B5B7A5BB2002B1FDA514C08226123E2542300343363663423E05CC0B23433E05423003533636600F0B9
:4012000091FD01225D23E25401322F3BE2542B21625C2A3B1A436254227A134323727BE3414B1B7ADB0600D430E130233E4AD35C022B00D02AE153899BB2002B07D1137A5B
:4012400010218B4313720120FFF79AF964E3364B5B899BB2062B00D876E02823324AD35CFF2B34D113001020282298541A7A40211143197200225A622F32995CC9B2053290
:4012800099545A89120A0243190034314A705B89DBB28B7003230DE023496A228A5AD218C86E84466244033A1078C918342288540133DBB2072BEFD91B4A6A21535A053372
:4012C0009BB253525389053B9BB2538196E0164B2922995C093A0A4334335A7002230DE011496A228A5AD218C86E84466244023A1078C918342288540133DBB2072BEFD9E9
:40130000094B6A215A5A063292B25A524A39282299545A89063A92B25A81197A40220A431A7200225A6269E074010020C00F0740C4000020380200204C000740ED0F000089
:401340005429000090290000CE4B197A40220A431A7200225A6228329B5CFF2B0FD1C94B07329A5CD2B234215A545A89D2B2190034314A7000212822995402232AE0C14B1B
:401380002F229A5CD2B234215A5429229A5C14390A4318003430427028229954EDE7591EC9B2B84A528992B291420CD8B5496A228A5AD218C86E84466244023A1078C918DE
:4013C0003422885404E0AF4AD218FF20342150540133DBB2072BE2D9AA4A6A21535A06339BB2535253899BB2062B04D95389063B9BB2538102E00022A24B5A812923A14A5F
:40140000D35C0F2B06D0110029228B5C0133DBB28B5403E0002129239A4AD154994C08226123E2542500343565662D3BE05CC0B23433E05423003533636600F073FC012288
:401440005D23E25401322F3BE2542B21625C2A3B1A436254227A134323726B78032B0FD1884B34339B787F2B0AD1864B34331B79782B05D1834A517A583B0B4353724BE267
:40148000804A537A20218B43537245E20120FFF777F841E2FEF78EFF04007023794AD054FF285DD01100143BD25C0233CA5243001B189B00744AD31840229A5C0F23134027
:4014C00061200B54D30640D52025154008D02000FEF7A8FF002803D10130FFF751F81EE263001B199B00684AD3185A6C654B5A66107868215854002D0CD0634963001B1976
:401500009B00CB1848331B78DBB2C85C68235D49C85406E05B482B21445C04232343DBB24354584C013262666823E05C00F0FAFB01225D23E25401322F3BE2542932A15CAC
:4015400004230B43DBB2A354E6E14E4B00215D2299541A0074325A6603312E229954DBE10120FFF70DF8D7E1464A517A10230B43DBB253726823D45C00F0BEFBFF231840F8
:40158000844205D1D43B3F4AD35C5BB2002B31DA70233C4AD35C5A00D3189B003A4AD31840229B5C9B0610D4364A918D01230B439BB2938500F0E2FF344A117C80235B427F
:4015C0000B43DBB2137400F0DDFF2B232D4AD35C5BB2002B0ADB1300918DFF220A409A855C229A5C1202998D0A439A851020FEF7C7FF91E1234A6823D05C5E21535AC3184F
:401600009BB25352FF2B03D9FF3B5E221D498B521C4B61229A5C5D215B5C9A420ED9194C636E1878C0B26822A0540133636600F079FB5D22A35C0133A3546DE1114C5E23F1
:40164000E05CC043C0B200F06DFB00225D23E25404322F3BE2545FE12B230A4AD35C5BB2002B35DA5D23D35C002B11D16033D35C002B0DD100F040FB01216023014AD15494
:401680001FE0C0467401002090290000C4000020A34CA28D012313439BB2A38500F06EFFA04A117C80235B420B43DBB2137400F069FF2B22A35C04218B43A3541020FEF7BD
:4016C0005FFF97492B22885C7F2303408B5423E100F012FBC0B2924B682298545A6E107001325A665D215A5C0132D2B25A545C7A10212143C9B259722B241D5D0421294312
:40170000C9B219555E215C5A201880B25852FF2803D9FF385E238249C85261238049CB5C9A4200D2F8E00B0000215D22995404312F3A9954F0E05E23794AD45CE443E4B2B9
:4017400000F0DAFAFF231840844205D1D43B744AD35C5BB2002B24DA714CA28D012313439BB2A38500F00AFF6E4A117C80235B420B43DBB2137400F005FF2B23E35C5BB214
:40178000002B0ADB664B998DFF220A409A855C229A5C1202998D0A439A851020FEF7F0FEBAE05F4A2B21505C7B2303405354908D022303439BB29385908DFF230340938541
:4017C0005C23D35C1B02908D03439385535C5B0604D5918D04230B439BB29385504A2B21505C40230343DBB253547023D35C022B08D100F0C3FE4B4A117C7F230B40137444
:4018000000F0C0FE5C23464AD35C3C2B14D07D2B12D07023D35C5A00D3189B00424AD31840229B5C9B0602D50120FEF7A9FE70233B4AD05CFEF7CEFD5C23394AD35C3C2BA4
:4018400033D10833D35C2F21525CD2B2934205D07F2B05D0012B05D1012204E0012202E0012200E00022D2B2002B06D12C4A918D08230B439BB293850EE0002A03D0022017
:40188000FFF7E4FA08E07E2B03D10420FFF7DEFA02E00120FFF7DAFA214A137A08218B4313720120FEF76CFE36E07D2B06D18020FFF7CCFA0120FEF763FE2DE07023184AD2
:4018C000D35C5A00D3189B00174AD31840229B5CDB061AD400F052FE00210FE0104A7023D35C5C00E3189B000F4CE3185B6C5B1852187424125D1A700131C9B26123084AF9
:40190000D35C9942EAD300F03DFE0120FEF738FE02E00120FEF734FE0422044B1A6070BD74010020C400002090290000C00F074010B51A4B1B7A5B060BD5184B5A6A013281
:401940005A625A6A164B9A4217D91020FFF77EFA13E0124B1B7A5BB2002B0BDA0F4B5A6A01325A625A6A0E4B9A4206D90820FFF76DFA02E00022094B5A62084BDB6C094AAF
:40198000934207D905495022885A012303439BB28B5202E00133014AD36410BD74010020E7030000571B000070B5174B1B68002B0FD100F0B7FB1549002000F0C3FB0025DE
:4019C00020E0200000F0C6FB104B984206D0013400E00024042CF4D9112500E00025002D0DD10FE0200000F0B5FB002805D10749200000F0A7FB002504E0013400E000249E
:401A0000042CEFD9280070BD100200203119000010B500F0B3FD040000F02EF9214B1888013880B2002100F02FF900F01BF900F043F91D4B1A68A02109030A431A601A687D
:401A4000802149010A431A60184A136818490B431360002307E0174A6432D2185178164AD1540133DBB2022BF5D9134B01212F2299549A8D00229A85DA644F315A5200F040
:401A80001FF9200000F07EFDFFF78EFF002801D1002400E0012400F0DDF8084800F0CCF8200010BD3802002048000740C80F0740040C00009029000074010020E51B0000C2
:401AC00070B50C00092872D880003E4B1B589F4650233D4AD05A80B272E000F04FFD050000F0CAF82088013880B2002100F0CCF82288364B1A8000F0B5F8280000F042FD9D
:401B000000205DE000F0E8F8314B1A688024640222431A6018682F4A104018602E4B19682143196019680A401A6000F07DF800F091F82A4A2A4B1A60002041E0FFF768FFD5
:401B400000203DE05423204AD35A0B80002037E01D4BD963002033E02F231B4AD35C0B7000202DE00A7813007E3BDBB2012B20D9002A20D02F231449CA54002020E00B7869
:401B8000022B04D8104AD35C4B70002018E0FF234B70012014E00A78022A0ED849783F230B403B2B0BD8084B9954002008E0012006E0012004E0012002E0012000E001200A
:401BC00070BDC04668290000740100203802002004020740FFFFFEFF04030740ED0F0000C00F074010B5FFF7E9F910BD014BD8667047C0460000002010B5040000F0BEFC46
:401C0000044A13689B009B08A4071C43146000F0B9FC10BD08E400E080221201014B1A607047C04600E100E080221201014B1A607047C04680E100E010B50400FFF7F4FFBD
:401C40002000FFF7D3FF0320FFF7D6FFFFF7E4FF10BDC04680221201014B1A607047C04680E200E0034A1368802109060B4313607047C04600000240024A13685B005B08AB
:401C80001360704700000240034A13681B0C1B04034313607047C04600000240014B186880B270470000024010B500F0A7F810BD10B500F0B9F810BD10B500F051F810BDDC
:401CC00010B5044A1368802109060B431360FFF7EBFF10BD0000074010B5FFF7E9FF044A13685B005B0813600022024B1A6010BD00000740880F0740014B18687047C046F0
:401D000040030740054B1A68802149020A431A601968034A0A401A607047C04604030740FFFFFEFF044B1B680F221340082BF9D0024B18607047C04608020740400207404E
:401D4000054B1A68802149020A431A601968034A0A401A607047C04604020740FFFFFEFF134A144B1A600023134A13601349144A1160144A14490A60072014490860144985
:401D80000B6005381349086013490A60134A1360134A1360134A1360134A1360134A1360134A1360134A13601268134B1A8070470F000002000007404000074002000A002D
:401DC0004800074007000080000307400403074010030740440007400002074004020740880E0740C80E0740480F0740080F0740C80F0740880F0740F8010020064A1168E6
:401E0000064B0B40902109040B431360044B1A88044B1A607047C04600000140FFFF0FFFF8010020880F0740064A1168064B0B401360064B1A68E423DB001340044A13800B
:401E40007047C04600000140FFFF0FFF880F0740F801002010B5FEF745FC10BD10B5074B1B78002B07D1FFF719FF0130044B18800122024B1A70002010BDC046FA010020BE
:401E80003802002010B5002802D1FFF7C1FD00E0012010BD1F2318401E3B8340014A13607047C04600E100E001BE704770B504000D000F2802D90020FFF7F6FFA400802384
:401EC0009B059C4664442068256070BD70B504000D001F2802D90020FFF7E6FF1034A40080239B059C4664442068256070BDC04610B5034B1B7B584300F036FB10BDC046FE
:401F0000DC000020F0B557464E46C0B483B0040000F034FB0190E71E2D2F74D83F4B1B78DBB29C4208D83E4B1B78DBB29A463D4B1B78DBB2994631E03B4B1B78DBB29C42BA
:401F400008D83A4B1B78DBB29A46394B1B78DBB2994623E0374B1B78DBB29C4208D8364B1B78DBB29A46354B1B78DBB2994615E0334B1B78DBB29C4208D8324B1B78DBB228
:401F80009A46314B1B78DBB2994607E02F4B1B78DBB29A462E4B1B78DBB299462D4BDE5D2F2E09D92A2C07D919222B4B1A60052000F0DAFA192503E0274B1D683F231D40DA
:401FC000B54206D9234BDA5D234B1A60052000F0CBFA1F4B9C4664442378DBB21F4A13601F4B52461A601F4B4A461A600520FFF77FFFB5420AD2174BDA5D174B1A600520B6
:4020000000F0B2FA02E00020FFF74EFF019800F0B9FA03B00CBC91469A46F0BDC0F1FF0FC1F1FF0FC2F1FF0FC3F1FF0FC4F1FF0FC5F1FF0FC6F1FF0FC7F1FF0FC8F1FF0FC9
:40204000C9F1FF0FCAF1FF0FCBF1FF0FCCF1FF0FCDF1FF0FF82900002CFF0B4028FF0B401CFF0B4020FF0B40024A116802230B431360704710E000E010B5FFF7F5FF034A67
:40208000116801230B43136010BDC04610E000E00002000A014B18607047C04614E000E0024B1868000C01231840704710E000E010B5FFF7F5FF01280BD107E0A300054A55
:4020C0009B58002B00D09847013400E00024042CF4D910BDFC0100200022014B1A60704718E000E010B5002304E0990000200A4A88500133042BF8D908490F20FFF7D6FE4D
:40210000074B1869FA21890000F040FAFFF7C0FFFFF7E2FF10BDC046FC010020B1200000DC00002010B5064B5B69002B04D1FFF7D9FF0122024B5A61FFF79EFF10BDC0467C
:40214000FC010020024A8300985899507047C046FC0100208000014BC0587047FC010020034B1868C0231B02184000D00120704700010B4010B500F001FA044A1368C02194
:4021800009020B43136000F0FDF910BD00010B4010B500F0F3F908490A68084B1A408024E40122430A600A6813408022120213430B6000F0E7F910BD00010B40FF3FFFFF8A
:4021C00070B5050000F0DAF90400FFF7C9FF002803D0FFF7DDFF012100E0002108482840084A1568084B2B40184310601368012901D1FFF7BFFF200000F0C4F970BDC04605
:402200000404040010020B40FBFBFBFF10B5244B1B685B0715D5234B1B685B070ED5224BD969042001401F4C22688A432260DA698243DA611B69002B00D098470420FFF7F9
:40224000BFFF174B1B685B0518D5164B1B685B0510D5154BD9698022D2001140114802688A430260D969114A0A40DA615B69002B00D098478020C000FFF7A2FF084B1B685F
:402280005B030CD5074B1B685B0304D5064B9B69002B00D098478020C002FFF791FF10BD10020B40F000002014020020FFFBFFFF034A117880235B420B43DBB21370704729
:4022C00072000F40014B18707047C04602000F40014B18707047C04642000F40014B18707047C04622000F40014B18707047C04682000F40014B1878C0B2704762000F40FF
:40230000014B1878C0B2704752000F4010B501E0FFF7F6FFFFF7EEFFC306F9D410BDC04610B513490B783F2293430C221343DBB20B70104C227801231343DBB22370FF2004
:40234000FFF7C0FFFF20FFF7C3FF7F20FFF7C6FF0020FFF7C9FF00F011F9227810231343DBB2237000F00EF9FFF7D0FF10BDC04672000F4092000F4010B5064B1B78002B57
:4023800004D1FFF7CDFF0122024B1A70FFF790FF10BDC04634020020034A117880235B420B43DBB21370704771000F40014B18707047C04601000F40014B18707047C04681
:4023C00041000F40014B18707047C04621000F40014B18707047C04681000F40014B1878C0B2704761000F40014B1878C0B2704751000F4010B501E0FFF7F6FFFFF7EEFF1D
:40240000C306F9D410BDC04610B513490B783F2293430C221343DBB20B70104C227801231343DBB22370FF20FFF7C0FFFF20FFF7C3FF7F20FFF7C6FF0020FFF7C9FF00F069
:402440009DF8227810231343DBB2237000F09AF8FFF7D0FF10BDC04671000F4091000F4010B5064B1B78002B04D1FFF7CDFF0122024B1A70FFF790FF10BDC04635020020B6
:40248000034A117880235B420B43DBB21370704770000F40014B18707047C04600000F40014B18707047C04640000F40014B18707047C04620000F40014B18707047C046A1
:4024C00080000F40014B1878C0B2704760000F40014B1878C0B2704750000F4010B501E0FFF7F6FFFFF7EEFFC306F9D410BDC04610B513490B783F2293430C221343DBB2EC
:402500000B70104C227801231343DBB22370FF20FFF7C0FFFF20FFF7C3FF7F20FFF7C6FF0020FFF7C9FF00F029F8227810231343DBB2237000F026F8FFF7D0FF10BDC046B3
:4025400070000F4090000F4010B5064B1B78002B04D1FFF7CDFF0122024B1A70FFF790FF10BDC046360200200230800804D0C0460138FDD1C046C046C0467047EFF31080D2
:4025800072B6704780F310887047C046002243088B4274D303098B425FD3030A8B4244D3030B8B4228D3030C8B420DD3FF22090212BA030C8B4202D31212090265D0030B4A
:4025C0008B4219D300E0090AC30B8B4201D3CB03C01A5241830B8B4201D38B03C01A5241430B8B4201D34B03C01A5241030B8B4201D30B03C01A5241C30A8B4201D3CB024C
:40260000C01A5241830A8B4201D38B02C01A5241430A8B4201D34B02C01A5241030A8B4201D30B02C01A5241CDD2C3098B4201D3CB01C01A524183098B4201D38B01C01A5D
:40264000524143098B4201D34B01C01A524103098B4201D30B01C01A5241C3088B4201D3CB00C01A524183088B4201D38B00C01A524143088B4201D34B00C01A5241411A34
:4026800000D20146524110467047FFE701B5002000F006F802BDC0460029F7D076E770477047C046014B18687047C046540100200E4B70B500251E000D4CE41AA410A54280
:4026C00004D0AB00F35898470135F8E700F0ACF9084B00251E00084CE41AA410A54204D0AB00F35898470135F8E770BD342A0000342A0000342A00003C2A000003008218FC
:40270000934202D019700133FAE770470000000000300F40000400400F400004800D810D820D060407010C01120813012407300232043301340836013F044020410545D157
:402740004720482349FF4AFF4BFF4DA04F04501852805405580459045A045B045F01604062C06440654066C068C06AC06CC06EC08A048F0194019807A701AE08B001B20211
:40278000B408B501B604BF10C020C105C5D1C602C807C9FFCAFFCBFFCDA0CF04D018D280D405D804D904DA04DB04DF01E040E2C0E440E540E6C0E8C0EAC0ECC0EEC00044A6
:4027C000051009020E200F0410201780184419401A101D301E601F60220427082F20300238043F8040044520482249014F855002574059415A085E405F0971027780C0452C
:40280000C268C484CA40CC01CE12D024D218D6DB0A040F011401180727012E08300132023408350136043F104020410545D14602480749FF4AFF4BFF4DA04F045018528028
:402840005405580459045A045B045F01604062C06440654066C068C06AC06CC06EC005100E200F0817801D301E601FA027082F203F8045204F8957405E405F0977808780BC
:40288000AF40B610C040C260C480CA40CE10D020D210D6D0EE1050405702D420D62063028701AF02B440D640E610EA100101100103000F404E300F4029310F4027320F40B1
:4028C0001C330F4004400F4007410F4002600F40760600007C06000082060000880600008E060000460800004C08000052080000580800005E080000640800006A08000017
:4029000070080000760800007C08000082080000880800008E0800009408000092090000980900009E090000A4090000AA090000B0090000B6090000BC090000C209000086
:40294000C8090000CE090000D4090000DA090000E00900004C11000060110000681500005816000036170000D01A0000DA1A0000041B00003C1B0000441B0000501B0000E2
:40298000581B0000641B00007E1B0000961B000080C14203C48506470849CA8B4C0D8ECF501192D31455D697D8991A5B9CDD5E1F2061E2A36425A6E7A8E96A2BECAD2E6F73
:4029C000F0B13273B4F576377839BAFB3C7DFEBF08000000C40000200000000008000000CC0000200000000018000000D4000020000000000150C111030405060708090A1C
:402A00000B0C0E0F101112131415161718191B1C1D1E1F2021222325262728292A2B2E2F3031323334354300F8B5C046F8BC08BC9E467047CD01000075030000F8B5C046D8
:402A4000F8BC08BC9E467047A5010000602A0000C000002098000000E80000000000000000000000000000FFFFFFFFFF0000FFFFFFFFFFFF00000000FFFFFFFF01000000C1
:402A80000000C05D80BB000030000000006CDC02040404000000000000000000000000000000000000000000000000000000000000000000262A00000000000000000000E8
:402AC00000000000000000000000000000000000000000000000000000000000000000000000000000000000000000000000000000000000F40000200000000000000000C2
:402B00000000000000000000000000000000000000000000000000000000000000000000000000000000000000000000000000000000000000000000000000000000000095
:402B40000000000000000000000000000000000000000000000000000000000000000000000000000000000000000000000000000000000000000000000000000000000055
:402B80000000000000000000000000000000000000000000000000000000000000000000000000000000000000000000000000000000000000000000000000000000000015
:402BC00000000000000000000000000000000000000000000000000000000000000000000000000000000000000000000000000000000000000000000000000000000000D5
:0200000490303A
:02000000FA1DE7
:0200000490402A
:200000000000000000000000000000000000000000000000000000000000000000000000E0
:0200000490501A
:0C000000000204C81193110104D70BB0DA
:0200000490600A
:0100000001FE
:00000001FF