:400000000010002011000000190300001903000010B500F089F9C04670B5144C23688025ED022B432360302001F07CFF104A114B1A601022104B1A601032104B1A608022C9
:4000400012060F4B1A6025600E4A0F4B1A600F4A0F4B1A600F49092001F030FF092001F011FF00220C4B1A6070BDC04600010B400600008004010B400C02024030020240DF
:4000800008010B409B000080000002407F070080400002402D2200000C020B4010B572B600240FE02A486200131959000B00411889881A5AC31858880004104300F026F9FC
:4000C0000134E4B2012CEDD921490C312148243000F002F999231B041F4A136003211F4A11601F491F4A11601F4A13601F4A1360C02189021E4A11601E4A13608022D204AC
:400100001D4B1A601D490B783C22934314221343DBB20B701A4A117816230B43DBB213702023184A1360C4218902174A1160174A13600121164A11601649174A1160174AF5
:400140001360174A174B1A60FFF766FF10BDC0469024000090250000000001400400014000EE30000C00014000500F4010500F4018500F4030500F4038500F4001700F40DC
:4001800000700F4000000440080004401800044000010440060018000801044000030440800D03000803044010B5064C2378002B07D1054B002B02D0044800E000BF0123AD
:4001C000237010BD50010020000000008C240000084B10B5002B03D00749084800E000BF07480368002B00D110BD064B002BFBD09847F9E700000000540100208C2400007B
:40020000C00000200000000070B501F063FC01F0D5FC62B601F01AFE002001F02BFE002802D0012002F054F8002500F053FA01284AD100F0B9FA00F0E3F9010004000220B7
:4002400001F000FE012C0DD107E0E0B201F0F4FB052001F045FE013C00E0FF24022CF4DCA1252EE0002C08D00CE0E0B201F0E4FB052001F035FE013400E00124FF2CF4DDEF
:40028000A0251EE0112C0DD107E0E0B201F048FC052001F025FE013C00E0FF24022CF4DCB1250EE0102C0CD107E0E0B201F038FC052001F015FE013400E00124FF2CF4DD61
:4002C000B025280000F0B6F900F00EFA0028ACD000F072FAA9E7C046F0B50025002711E0BB00C658F3B2FF22964308E06A008A181478A419527822700135013BDBB2002BB7
:40030000F4D10137052FEBD9F0BDC04610B50A00002102F0B3F810BD10B502F083F803680C2B00D1FEE7FEE770B50F4E0F4D13E029686B68AC68002202E001C901C304323B
:40034000A242FAD1E868002202E0002102C304328242FAD11035013E002EE9D102F068F8FFF752FFFEE7C04601000000F826000010B500230AE0032B03D89A000949505851
:4003800000E009489900094A885001332F2BF2D9FFF784FE8022D205116801230B43136010BDC0460000000019030000000000200200002006E0054B1B5CDBB2934204D08C
:4003C0000130C0B20128F6D9FF2070476C010020002802D0012806D00BE0064A11794C230B43137105E0034A1379502149420B43137170476C010020002070470378DBB251
:40040000FE2B05D00378DBB2FF2B03D1012202E0012200E0002243787F2B03D043787F2B00D000228378DBB2FE2B04D08378DBB2FF2B00D00022C378DBB2FF2B04D0C378D5
:40044000DBB2FF2B00D00022100070470C4B99797F220A409A71DB795BB2002B0ADB084B1B899BB2002B07D0054B9B79DB0605D4002004E0002002E0002000E004207047F7
:400480006C010020194BFF229A7200229A819A731B69002B01D000221A80082803D10522124B1A7514E0012803D103220F4B1A750EE00E4B1B7D032B0AD00C4B1B7D062B7B
:4004C00006D00A4B1B7D052B02D00222074B1A75064B00229A61DA61D8797F210140D97198795F21014099711A6270476C010020174BFF212422995400221A812532002187
:400500009954102804D104212623114AD15412E0012804D1032126230D4AD1540BE026230B4AD35C032B06D02623D35C042B02D002212623D154064B99792F220A409A712B
:40054000D9797F220A40DA7100221A627047C0466C01002070B5284B27241A5D04218A431A559A798A439A7110280DD11A002723D15C233CA143D154D35C5B0604D5118D4F
:4005800004230B439BB21385202819D11A4A2721505C40230343DBB2535493795B0705D5130024392622995400229A71124B9B791B071FD5104B03221A7500229A7119E0A4
:4005C000012801D0102815D10B4C2722A15C77230B40A35401F092FE050001F08BFB01F0A7FB0422054B1A6000222A23E254280001F088FE70BDC0466C010020C00F0740D0
:40060000024B18787F2318407047C046C400002010B5040001F072FE054B1A7A7F218A431A721A7A0C4014431C7201F06BFE10BDC4000020014B58727047C046C4000020B4
:4006400010B5022802D0042804D006E00800FFF7DFFF02E00800FFF7EDFF10BD034B1B79DB0701D5012000E0002070476C010020034B1B799B0701D5012000E0002070472D
:400680006C010020034B1B795B0701D4002000E0012070476C010020034B1B791B0701D4002000E0012070476C010020034B1B79DB0601D4002000E0012070476C010020F4
:4006C000034B1B799B0601D4002000E0012070476C010020034B1B795B0601D4002000E0012070476C010020044B1B795BB2002B01DB002000E001207047C0466C0100205E
:4007000010B507281BD880000E4B1B589F46FFF7A5FF15E0FFF7ACFF12E0FFF7B3FF0FE0FFF7BAFF0CE0FFF7C1FF09E0FFF7C8FF06E0FFF7CFFF03E0FFF7D6FF00E0012098
:4007400010BDC046CC250000024A137901218B43137170476C010020024A137902218B43137170476C010020024A137904218B43137170476C010020024A137908218B4332
:40078000137170476C010020024A137910218B43137170476C010020024A137920218B43137170476C010020024A137940218B43137170476C010020024A13797F210B4091
:4007C000137170476C01002010B507281AD880000D4B1B589F46FFF7B7FF13E0FFF7BCFF10E0FFF7C1FF0DE0FFF7C6FF0AE0FFF7CBFF07E0FFF7D0FF04E0FFF7D5FF01E098
:40080000FFF7DAFF10BDC046EC2500000020704770B504000378002B07D1C04A118D08230B439BB213850020F5E11A007E3AD2B2012A0CD92B22B9498A5CD2B2934206D0C1
:40084000012B00D0D1E18378B02B00D0CDE162780F231100994300D045E1A378B22B03D0B72B00D1B4E0F8E00F231A40062A00D0FEE0201DFFF7C2FDE378002B1DD10128A4
:4008800075D1A6492B33CB5CDBB230228B540A00303206235370EC3393700C33D3707E3010715371013393710023D371C879802252420243D2B2CA7166E0012B29D1012822
:4008C00057D1964B996B002955D02B229A5CD2B22F301A541B1805225A70ED329A70032308E0CA18033A15788C4AD218302015540133DBB2062BF4D9884A13003033FF2162
:40090000D971D17980235B420B43DBB2D37100233AE0032B31D01A00203AD2B21F2A2ED801282ED1E11C1800FFF770FF02282AD17A4B2B229A5CD2B230215A545B18062224
:400940005A70EC329A70032306E0E05C734AD218302150540133DBB2072BF6D96F4AD17980235B420B43DBB2D37100230CE000230AE0012308E0012306E0012304E001231F
:4009800002E0012300E00123012B71D1634B2B229A5CD2B230215A54303303225A707C329A703332DA70A03A1A71052306E05B4AD218FF20302150540133DBB2072BF6D9BA
:4009C000564AD17980235B420B43DBB2D3714FE00F231A40062A4BD1002100231BE0E2789A18012A0FD8E0180079FF2806D03F2505403B2D02D8494DA8540AE0FF2808D076
:400A00000131C9B205E0E2181279FF2A01D00131C9B20133DBB2032BE1D9002928D13F4B2B229A5CD2B230315A54303301225A70F6329A70032306E0384AD218FF20302163
:400A400050540133DBB2072BF6D9344AD17980235B420B43DBB2D3710AE0304A917901230B43DBB29371917902230B43DBB293712A4B9B79DB0704D4284B9B799B0700D42A
:400A8000A2E06378062B25D8244B1B7D012B23D1224B9B79DB0702D5204BDA699A61002308E01E498A69E0188078107001328A610133DBB262789342F3D3184B2278D96B37
:400AC0000A70627819690A8000229A8102321A75012002E0082000E00120104A937903218B4393717BE010292FD1A378062B6DD90A48FF218172F0390A4012021343027D27
:400B0000012A65D180229200934263D88381016983899BB20B8003230AE0C0466C01002051498A69E05C107001328A610133DBB2072BF5D94C4A9389053B9BB2938100237D
:400B4000937310339372022049E0202944D1464B9B7A102B01D0202B40D10F231A40424B9B7B01330F210B40934228D13E4B1B7D012B0AD0002032E03B498A69E05C107038
:400B800001328A610133DBB200E00223072BF3D963780F221A40344B9A7320229A729B899BB2062B06D9304A9389063B9BB29381022014E000222C4B9A8101200FE0062258
:400BC000294B1A7510200AE0082008E0082006E0082004E0082002E0082000E00820224BDB795BB2002B16DA12E01F4BD9797F220A40DA719B799B060CD51B4B03221A75F7
:400C000026215A549A7906398A439A71002002E0012000E000204023134AD35C7E2B0BD0431EDBB2012B07D8917980235B420B43DBB2937100231362012813D10A4B9B89BF
:400C40009BB2002B0ED1084B00229A73FF329A729B799B0606D5044BFD3A1A759A7920218A439A7170BDC0466C01002010B504002C23594AD35C012B35D0002B02D0022B88
:400C800065D0A7E0042812D004D8012809D0022815D09FE0102804D0802802D0082800D098E04D4A91793F230B40937192E04A484030FFF7ADFD2000FFF71AFC8AE0FFF70E
:400CC00017FC45484030FFF7A3FD012804D102212C23414AD1547DE002287BD101212C233D4AD15476E0082809D004D8012806D002280FD06EE0102801D080286AD12000A1
:400D0000FFF7F6FB2000FFF7BDFB00212C23324AD1545FE030484030FFF77AFD012804D102212C232C4AD15454E0022804D101212C23294AD1544DE02000FFF7D9FB2000DB
:400D4000FFF7A0FB00212C23234AD15442E008280AD004D8012807D002281DD03AE0102802D0802808D035E02000FFF7C1FB00212C23194AD1542DE0FFF768FB042829D0B3
:400D80002000FFF7B5FB144BDB799B0622D400212C23114AD1541DE0FFF7AAFB0E484030FFF736FD012804D102212C230A4AD15410E0022804D101212C23074AD15409E004
:400DC0002000FFF75FFB2000FFF792FB00212C23014AD15410BDC0466C01002070B5DA4B198D10220A4392B21A8500229A644C215A5A012082435A52D44B1A6890235B00CC
:400E00001A420BD0D8229200D04B1A60CE492722885C80235B420343DBB28B54CB4B1B681B0534D580221201C84B1A602723C64AD35C5B070FD5118D01230B439BB213855C
:400E400001F05CFAC24A117A80235B420B43DBB2137201F057FA00F007FFBE4B1888013880B2002100F008FF00F0F4FEB64C2722A15C7B230B40A35400222A23E2540120C0
:400E8000FFF768FB01224E23E25200F058FCAF4B1B685B0558D58022D200AC4B1A60AA4A00214E23D152AC4B1B681B051B0D50315352535A9BB2802B37D05023D35A802B56
:400EC0000AD55023D25A30339A1AD00F00233E3991424341DBB209E050239B4AD25A803AD00F0023122191424341DBB2002B17D0984B1A88944C5023E35A5343DA094021BF
:400F00000B40591E8B419B18636500F0ADFE606D013880B2002100F0AFFE00F09BFE04E00120FFF717FB00F00AFC874A01212A23D1542631505C08230343DBB2535400F08E
:400F4000D9FE864A814B1A60804B1B685B0701D400F0F5FB2A237C4AD35CDBB2042B01D900F0E7FB9B007E4AD3589F4600F0C2FE0422764B1A600120FFF7ECFA00F0DCFB2D
:400F80002723714AD35C5BB2002B03DA1020FFF7E1FAD1E300F0A8FEC0B26B4B58229854002259215A5401315A525C32002199543F2303406B4AD35C984203D01020FFF7EF
:400FC000C9FAB9E33C2802D07D2800D072E13C280ED15D4B997908220A43D2B29A715D22082199541A0040321A6605392A2299547D2800D0A0E3544BDB795BB2002B1FDA5D
:40100000514C08225D23E2542300303323663023E05CC0B23433E05423003133236600F079FE01225923E25401322F3BE2542721625C263B1A436254A2791343A3717BE30C
:40104000414B9B79DB0600D430E12C233E4AD35C022B00D02AE113899BB2002B07D1937910218B4393710120FFF774FA64E3364B1B899BB2062B00D876E02423324AD35C72
:40108000FF2B34D113001020242298549A7940211143997100221A622B32995CC9B2053299541A89120A0243190030314A701B89DBB28B7003230DE0234966228A5AD218F2
:4010C000886E84466244033A1078C918302288540133DBB2072BEFD91B4A6621535A05339BB253521389053B9BB2138196E0164B2522995C053A0A4330335A7002230DE09D
:40110000114966228A5AD218886E84466244023A1078C918302288540133DBB2072BEFD9094B66215A5A063292B25A524639242299541A89063A92B21A81997940220A431F
:401140009A7100221A6269E06C010020C00F0740C40000202C0200204C000740ED0F00000C26000048260000CE4B997940220A439A7100221A6224329B5CFF2B0FD1C94B8B
:4011800007329A5CD2B230215A541A89D2B2190030314A7000212422995402232AE0C14B2B229A5CD2B230215A5425229A5C10390A4318003030427024229954EDE7591E52
:4011C000C9B2B84A128992B291420CD8B54966228A5AD218886E84466244023A1078C9183022885404E0AF4AD218FF20302150540133DBB2072BE2D9AA4A6621535A063365
:401200009BB2535213899BB2062B04D91389063B9BB2138102E00022A24B1A812523A14AD35C0F2B06D0110025228B5C0133DBB28B5403E0002125239A4AD154994C0822C6
:401240005D23E2542500303525662D3BE05CC0B23433E05423003133236600F05BFD01225923E25401322F3BE2542721625C263B1A436254A2791343A3716B78032B0FD102
:40128000884B30339B787F2B0AD1864B30331B79782B05D1834AD179583B0B43D3714BE2804AD37920218B43D37145E20120FFF751F941E2FFF77CF804006C23794AD054BE
:4012C000FF285DD01100143BD25C0233CA5243001B189B00744AD31840229A5C0F2313405D200B54D30640D52025154008D02000FFF782F8002803D10130FFF72BF91EE211
:4013000063001B199B00684AD3185A6C654B1A66107864215854002D0CD0634963001B199B00CB1848331B78DBB2C85C64235D49C85406E05B482721445C04232343DBB2D2
:401340004354584C013222666423E05C00F0E2FC01225923E25401322F3BE2542532A15C04230B43DBB2A354E6E14E4B0021592299541A0070321A6603312A229954DBE1A3
:401380000120FFF7E7F8D7E1464AD17910230B43DBB2D3716423D45C00F0A6FCFF231840844205D1D83B3F4AD35C5BB2002B31DA6C233C4AD35C5A00D3189B003A4AD31853
:4013C00040229B5C9B0610D4364A118D01230B439BB2138500F092FF344A117A80235B420B43DBB2137200F08DFF27232D4AD35C5BB2002B0ADB1300118DFF220A401A852C
:4014000058229A5C1202198D0A431A851020FFF7A1F891E1234A6423D05C5A21535AC3189BB25352FF2B03D9FF3B5A221D498B521C4B5D229A5C59215B5C9A420ED9194C1C
:40144000236E1878C0B26422A0540133236600F061FC5922A35C0133A3546DE1114C5A23E05CC043C0B200F055FC00225923E25404322F3BE2545FE127230A4AD35C5BB2D2
:40148000002B35DA5923D35C002B11D15C33D35C002B0DD100F028FC01215C23014AD1541FE0C0466C01002048260000C4000020A34C228D012313439BB2238500F01EFF50
:4014C000A04A117A80235B420B43DBB2137200F019FF2722A35C04218B43A3541020FFF739F897492722885C7F2303408B5423E100F0FAFBC0B2924B642298541A6E1070C3
:4015000001321A6659215A5C0132D2B25A54DC7910212143C9B2D97127241D5D04212943C9B219555A215C5A201880B25852FF2803D9FF385A238249C8525D238049CB5C24
:401540009A4200D2F8E00B0000215922995404312F3A9954F0E05A23794AD45CE443E4B200F0C2FBFF231840844205D1D83B744AD35C5BB2002B24DA714C228D01231343EA
:401580009BB2238500F0BAFE6E4A117A80235B420B43DBB2137200F0B5FE2723E35C5BB2002B0ADB664B198DFF220A401A8558229A5C1202198D0A431A851020FEF7CAFFFD
:4015C000BAE05F4A2721505C7B2303405354108D022303439BB21385108DFF23034013855823D35C1B02108D03431385535C5B0604D5118D04230B439BB21385504A2721A0
:40160000505C40230343DBB253546C23D35C012B08D100F073FE4B4A117A7F230B40137200F070FE5823464AD35C3C2B14D07D2B12D06C23D35C5A00D3189B00424AD318E9
:4016400040229B5C9B0602D50120FEF783FF6C233B4AD05CFEF7BCFE5823394AD35C3C2B33D10433D35C2B21525CD2B2934205D07F2B05D0012B05D1012204E0012202E05F
:40168000012200E00022D2B2002B06D12C4A118D08230B439BB213850EE0002A03D00220FFF7E4FA08E07E2B03D10420FFF7DEFA02E00120FFF7DAFA214A937908218B439A
:4016C00093710120FEF746FF36E07D2B06D18020FFF7CCFA0120FEF73DFF2DE06C23184AD35C5A00D3189B00174AD31840229B5CDB061AD400F002FE00210FE0104A6C23DE
:40170000D35C5C00E3189B000F4CE3185B6C5B1852187024125D1A700131C9B25D23084AD35C9942EAD300F0EDFD0120FEF712FF02E00120FEF70EFF0422044B1A6070BD99
:401740006C010020C400002048260000C00F074010B51A4B9B795B060BD5184B1A6A01321A621A6A164B9A4217D91020FFF77EFA13E0124B9B795BB2002B0BDA0F4B1A6AB1
:4017800001321A621A6A0E4B9A4206D90820FFF76DFA02E00022094B1A62084B9B6C094A934207D905494C22885A012303439BB28B5202E00133014A936410BD6C01002043
:4017C000E7030000571B000070B5174B1B68002B0FD100F0B7FC1549002000F0C3FC002520E0200000F0C6FC104B984206D0013400E00024042CF4D9112500E00025002D08
:401800000DD10FE0200000F0B5FC002805D10749200000F0A7FC002504E0013400E00024042CEFD9280070BD080200205117000010B500F063FD040000F016FA214B1888D3
:40184000013880B2002100F017FA00F003FA00F02BFA1D4B1A68A02109030A431A601A68802149010A431A60184A136818490B431360002307E0174A5832D2185178164A20
:40188000D1540133DBB2012BF5D9134B01212B2299541A8D00221A859A644B315A5200F007FA200000F02EFDFFF78EFF002801D1002400E0012400F0C5F9084800F0B4F993
:4018C000200010BD2C02002048000740C80F0740040C0000482600006C010020051A000070B50C00092872D880003E4B1B589F464C233D4AD05A80B272E000F0FFFC050035
:4019000000F0B2F92088013880B2002100F0B4F92288364B1A8000F09DF9280000F0F2FC00205DE000F0D0F9314B1A688024640222431A6018682F4A104018602E4B196832
:401940002143196019680A401A6000F065F900F079F92A4A2A4B1A60002041E0FFF768FF00203DE05023204AD35A0B80002037E01D4B9963002033E02B231B4AD35C0B7097
:4019800000202DE00A7813007E3BDBB2012B20D9002A20D02B231449CA54002020E00B78012B04D8104AD35C4B70002018E0FF234B70012014E00B78012B0ED849783F2267
:4019C0000A403B2A0BD8084AD154002008E0012006E0012004E0012002E0012000E0012070BDC046202600006C0100202C02002004020740FFFFFEFF04030740ED0F0000BF
:401A0000C00F074010B5FFF7E9F910BD034A117880235B420B43DBB21370704773000F40014B18707047C04603000F40014B18707047C04643000F40014B18707047C046A2
:401A400023000F40014B18707047C04683000F40014B1878C0B2704763000F40014B1878C0B2704753000F4010B501E0FFF7F6FFFFF7EEFFC306F9D410BDC04610B5134935
:401A80000B783F2293430C221343DBB20B70104C227801231343DBB22370FF20FFF7C0FFFF20FFF7C3FF7F20FFF7C6FF0020FFF7C9FF00F023FC227810231343DBB223701B
:401AC00000F020FCFFF7D0FF10BDC04673000F4093000F4010B5064B1B78002B04D1FFF7CDFF0122024B1A70FFF790FF10BDC046EA010020034A117880235B420B43DBB2E5
:401B00001370704772000F40014B18707047C04602000F40014B18707047C04642000F40014B18707047C04622000F40014B18707047C04682000F40014B1878C0B270473D
:401B400062000F40014B1878C0B2704752000F4010B501E0FFF7F6FFFFF7EEFFC306F9D410BDC04610B513490B783F2293430C221343DBB20B70104C227801231343DBB2CD
:401B80002370FF20FFF7C0FFFF20FFF7C3FF7F20FFF7C6FF0020FFF7C9FF00F0AFFB227810231343DBB2237000F0ACFBFFF7D0FF10BDC04672000F4092000F4010B5064BEB
:401BC0001B78002B04D1FFF7CDFF0122024B1A70FFF790FF10BDC046EB010020014BD8667047C0460000002010B5040000F086FB044A13689B009B08A4071C43146000F01C
:401C000081FB10BD08E400E080221201014B1A607047C04600E100E080221201014B1A607047C04680E100E010B50400FFF7F4FF2000FFF7D3FF0320FFF7D6FFFFF7E4FFBC
:401C400010BDC04680221201014B1A607047C04680E200E0034A1368802109060B4313607047C04600000240024A13685B005B081360704700000240034A13681B0C1B04E0
:401C8000034313607047C04600000240014B186880B270470000024010B500F0A7F810BD10B500F0B9F810BD10B500F051F810BD10B5044A1368802109060B431360FFF761
:401CC000EBFF10BD0000074010B5FFF7E9FF044A13685B005B0813600022024B1A6010BD00000740880F0740014B18687047C04640030740054B1A68802149020A431A60D6
:401D00001968034A0A401A607047C04604030740FFFFFEFF044B1B680F221340082BF9D0024B18607047C0460802074040020740054B1A68802149020A431A601968034A0A
:401D40000A401A607047C04604020740FFFFFEFF134A144B1A600023134A13601349144A1160144A14490A6007201449086014490B6005381349086013490A60134A1360D6
:401D8000134A1360134A1360134A1360134A1360134A1360134A13601268134B1A8070470F000002000007404000074002000A004800074007000080000307400403074081
:401DC00010030740440007400002074004020740880E0740C80E0740480F0740080F0740C80F0740880F0740EE010020064A1168064B0B40902109040B431360044B1A8892
:401E0000044B1A607047C04600000140FFFF0FFFEE010020880F0740064A1168064B0B401360064B1A68E423DB001340044A13807047C04600000140FFFF0FFF880F074039
:401E4000EE01002010B5FEF7FBFB10BD10B5074B1B78002B07D1FFF719FF0130044B18800122024B1A70002010BDC046F00100202C02002010B5002802D1FFF7D9FC00E04C
:401E8000012010BD1F2318401E3B8340014A13607047C04600E100E001BE704770B504000D000F2802D90020FFF7F6FFA40080239B059C4664442068256070BD70B50400A5
:401EC0000D001F2802D90020FFF7E6FF1034A40080239B059C4664442068256070BDC04610B5040006E0084B586800F0FDF9074B9C46644480231B029C42F4D8024B986888
:401F0000604300F0F1F910BDD40000200080FFFF10B5034B1B7B584300F0E6F910BDC046D4000020F0B557464E46C0B483B0040000F0E4F90190E71E2D2F74D83F4B1B7862
:401F4000DBB29C4208D83E4B1B78DBB29A463D4B1B78DBB2994631E03B4B1B78DBB29C4208D83A4B1B78DBB29A46394B1B78DBB2994623E0374B1B78DBB29C4208D8364BA5
:401F80001B78DBB29A46354B1B78DBB2994615E0334B1B78DBB29C4208D8324B1B78DBB29A46314B1B78DBB2994607E02F4B1B78DBB29A462E4B1B78DBB299462D4BDE5DCD
:401FC0002F2E09D92A2C07D919222B4B1A60052000F08AF9192503E0274B1D683F231D40B54206D9234BDA5D234B1A60052000F07BF91F4B9C4664442378DBB21F4A1360EE
:402000001F4B52461A601F4B4A461A600520FFF77FFFB5420AD2174BDA5D174B1A60052000F062F902E00020FFF736FF019800F069F903B00CBC91469A46F0BDC0F1FF0FA9
:40204000C1F1FF0FC2F1FF0FC3F1FF0FC4F1FF0FC5F1FF0FC6F1FF0FC7F1FF0FC8F1FF0FC9F1FF0FCAF1FF0FCBF1FF0FCCF1FF0FCDF1FF0FA42600002CFF0B4028FF0B40A0
:402080001CFF0B4020FF0B40024A116802230B431360704710E000E010B5FFF7F5FF034A116801230B43136010BDC04610E000E00002000A014B18607047C04614E000E0C0
:4020C000024B1868000C01231840704710E000E010B5FFF7F5FF01280BD107E0A300054A9B58002B00D09847013400E00024042CF4D910BDF40100200022014B1A607047F3
:4021000018E000E010B5002304E0990000200A4A88500133042BF8D908490F20FFF7BEFE074B1869FA21890000F0F0F8FFF7C0FFFFF7E2FF10BDC046F4010020D1200000FC
:40214000D400002010B5064B5B69002B04D1FFF7D9FF0122024B5A61FFF79EFF10BDC046F4010020024A8300985899507047C046F40100208000014BC0587047F4010020F3
:40218000034B1868C0231B02184000D00120704700010B4010B500F0B1F8044A1368C02109020B43136000F0ADF810BD00010B4010B500F0A3F808490A68084B1A4080241F
:4021C000E40122430A600A6813408022120213430B6000F097F810BD00010B40FF3FFFFF70B5050000F08AF80400FFF7C9FF002803D0FFF7DDFF012100E000210848284015
:40220000084A1568084B2B40184310601368012901D1FFF7BFFF200000F074F870BDC0460404040010020B40FBFBFBFF10B5244B1B685B0715D5234B1B685B070ED5224B6D
:40224000D969042001401F4C22688A432260DA698243DA611B69002B00D098470420FFF7BFFF174B1B685B0518D5164B1B685B0510D5154BD9698022D20011401148026875
:402280008A430260D969114A0A40DA615B69002B00D098478020C000FFF7A2FF084B1B685B030CD5074B1B685B0304D5064B9B69002B00D098478020C002FFF791FF10BD33
:4022C00010020B40E80000200C020020FFFBFFFF04490A68D2B240239A4380011840104308607047000104400230800804D0C0460138FDD1C046C046C0467047EFF310806A
:4023000072B6704780F310887047C046002243088B4274D303098B425FD3030A8B4244D3030B8B4228D3030C8B420DD3FF22090212BA030C8B4202D31212090265D0030BCC
:402340008B4219D300E0090AC30B8B4201D3CB03C01A5241830B8B4201D38B03C01A5241430B8B4201D34B03C01A5241030B8B4201D30B03C01A5241C30A8B4201D3CB02CE
:40238000C01A5241830A8B4201D38B02C01A5241430A8B4201D34B02C01A5241030A8B4201D30B02C01A5241CDD2C3098B4201D3CB01C01A524183098B4201D38B01C01AE0
:4023C000524143098B4201D34B01C01A524103098B4201D30B01C01A5241C3088B4201D3CB00C01A524183088B4201D38B00C01A524143088B4201D34B00C01A5241411AB7
:4024000000D20146524110467047FFE701B5002000F006F802BDC0460029F7D076E770477047C046014B18687047C0464C0100200E4B70B500251E000D4CE41AA410A5420A
:4024400004D0AB00F35898470135F8E700F042F9084B00251E00084CE41AA410A54204D0AB00F35898470135F8E770BDE0260000E0260000E0260000E82600000300821848
:40248000934202D019700133FAE770470000000000300F40000400400F400004820D830D0101060116051C0C2D012E02300832023401360437013E104030410645D04620AE
:4024C0004710482A49FF4AFF4BFF4DA04F04501852805405580459045A045B045F01604062C06440654066C068C06AC06CC06EC08A0592019901A101A40CAE02B008B20288
:40250000B401B604B701BE10C030C105C5D1C720C823C9FFCAFFCBFFCDA0CF04D018D280D405D804D904DA04DB04DF01E040E2C0E440E540E6C0E8C0EAC0ECC0EEC0001017
:40254000062009020D080F02102013401740181019021A041B801C021D081E081F022240264029022F0230203F0240104508482249014F21500251025620571159015A8473
:402580005E885F017340774083808401C022C2A8C485CA11CC04CE80D042D228D6DBE40457018701D620E61067028301D60101011001000002000F404F320F4031330F4039
:4025C00004410F4003430F4002600F400E070000140700001A07000020070000260700002C0700003207000038070000D6070000DC070000E2070000E8070000EE07000024
:40260000F4070000FA070000000800006C0F0000800F0000881300007814000056150000F0180000FA180000241900005C19000064190000701900007819000084190000FA
:402640009E190000B619000080C14203C48506470849CA8B4C0D8ECF501192D31455D697D8991A5B9CDD5E1F2061E2A36425A6E7A8E96A2BECAD2E6FF0B13273B4F57637D0
:402680007839BAFB3C7DFEBF08000000C40000200000000018000000CC0000200000000001501100030405060708090A0B0C0E0F101112131415161718191B1C1D1E1F2006
:4026C00021222325262728292A2B2E2F3031323334354300F8B5C046F8BC08BC9E467047D101000071030000F8B5C046F8BC08BC9E467047A901000008270000C000002002
:4027000090000000E0000000000000008000FFFFFFFFFFFF0000FFFFFFFFFFFF010000000000C05D80BB000030000000006CDC0204040400000000000000000000000000D6
:402740000000000000000000000000000000000000000000D22600000000000000000000000000000000000000000000000000000000000000000000000000000000000061
:402780000000000000000000000000000000000000000000EC000020000000000000000000000000000000000000000000000000000000000000000000000000000000000D
:4027C00000000000000000000000000000000000000000000000000000000000000000000000000000000000000000000000000000000000000000000000000000000000D9
:402800000000000000000000000000000000000000000000000000000000000000000000000000000000000000000000000000000000000000000000000000000000000098
:402840000000000000000000000000000000000000000000000000000000000000000000000000000000000000000000000000000000000000000000000000000000000058
:402880000000000000000000000000000000000000000000000000000000000000000000000000000000000000000000000000000000000000000000000000000000000018
:0200000490303A
:02000000C5B485
:0200000490402A
:200000000000000000000000000000000000000000000000000000000000000000000000E0
:0200000490501A
:0C000000000204C81193110104D5D74779
:0200000490600A
:0100000001FE
:00000001FF